{"contracts/Voting.sol":{"Voting":{"abi":[{"inputs":[],"stateMutability":"nonpayable","type":"constructor"},{"inputs":[{"internalType":"address","name":"owner","type":"address"}],"name":"OwnableInvalidOwner","type":"error"},{"inputs":[{"internalType":"address","name":"account","type":"address"}],"name":"OwnableUnauthorizedAccount","type":"error"},{"anonymous":false,"inputs":[{"indexed":true,"internalType":"address","name":"previousOwner","type":"address"},{"indexed":true,"internalType":"address","name":"newOwner","type":"address"}],"name":"OwnershipTransferred","type":"event"},{"anonymous":false,"inputs":[{"indexed":true,"internalType":"uint256","name":"eventId","type":"uint256"},{"indexed":true,"internalType":"address","name":"voter","type":"address"},{"indexed":false,"internalType":"uint256","name":"companyIndex","type":"uint256"}],"name":"Voted","type":"event"},{"anonymous":false,"inputs":[{"indexed":true,"internalType":"uint256","name":"eventId","type":"uint256"},{"indexed":false,"internalType":"string","name":"name","type":"string"},{"indexed":false,"internalType":"string[]","name":"companies","type":"string[]"}],"name":"VotingEventCreated","type":"event"},{"inputs":[{"internalType":"string","name":"name","type":"string"},{"internalType":"string[]","name":"companyNames","type":"string[]"}],"name":"createVotingEvent","outputs":[],"stateMutability":"nonpayable","type":"function"},{"inputs":[{"internalType":"uint256","name":"eventId","type":"uint256"}],"name":"endVoting","outputs":[],"stateMutability":"nonpayable","type":"function"},{"inputs":[],"name":"eventCount","outputs":[{"internalType":"uint256","name":"","type":"uint256"}],"stateMutability":"view","type":"function"},{"inputs":[{"internalType":"uint256","name":"eventId","type":"uint256"}],"name":"getEvent","outputs":[{"internalType":"string","name":"name","type":"string"},{"internalType":"string[]","name":"companies","type":"string[]"},{"internalType":"uint256[]","name":"voteCounts","type":"uint256[]"},{"internalType":"uint256","name":"winnerIndex","type":"uint256"},{"internalType":"bool","name":"ended","type":"bool"}],"stateMutability":"view","type":"function"},{"inputs":[{"internalType":"uint256","name":"eventId","type":"uint256"},{"internalType":"address","name":"user","type":"address"}],"name":"hasVoted","outputs":[{"internalType":"bool","name":"","type":"bool"}],"stateMutability":"view","type":"function"},{"inputs":[],"name":"owner","outputs":[{"internalType":"address","name":"","type":"address"}],"stateMutability":"view","type":"function"},{"inputs":[],"name":"renounceOwnership","outputs":[],"stateMutability":"nonpayable","type":"function"},{"inputs":[{"internalType":"address","name":"newOwner","type":"address"}],"name":"transferOwnership","outputs":[],"stateMutability":"nonpayable","type":"function"},{"inputs":[{"internalType":"uint256","name":"eventId","type":"uint256"},{"internalType":"uint256","name":"companyIndex","type":"uint256"}],"name":"vote","outputs":[],"stateMutability":"nonpayable","type":"function"}],"evm":{"bytecode":{"linkReferences":{},"object":"60806040523480156200001157600080fd5b5033600073ffffffffffffffffffffffffffffffffffffffff168173ffffffffffffffffffffffffffffffffffffffff1603620000885760006040517f1e4fbdf70000000000000000000000000000000000000000000000000000000081526004016200007f9190620001a9565b60405180910390fd5b6200009981620000a060201b60201c565b50620001c6565b60008060009054906101000a900473ffffffffffffffffffffffffffffffffffffffff169050816000806101000a81548173ffffffffffffffffffffffffffffffffffffffff021916908373ffffffffffffffffffffffffffffffffffffffff1602179055508173ffffffffffffffffffffffffffffffffffffffff168173ffffffffffffffffffffffffffffffffffffffff167f8be0079c531659141344cd1fd0a4f28419497f9722a3daafe3b4186f6b6457e060405160405180910390a35050565b600073ffffffffffffffffffffffffffffffffffffffff82169050919050565b6000620001918262000164565b9050919050565b620001a38162000184565b82525050565b6000602082019050620001c0600083018462000198565b92915050565b61199480620001d66000396000f3fe608060405234801561001057600080fd5b50600436106100935760003560e01c8063715018a611610066578063715018a61461013457806371be2e4a1461013e5780638da5cb5b1461015c578063b384abef1461017a578063f2fde38b1461019657610093565b80633867f2071461009857806343859632146100b4578063649f89a5146100e45780636d1884e014610100575b600080fd5b6100b260048036038101906100ad9190610e66565b6101b2565b005b6100ce60048036038101906100c99190610f72565b61032d565b6040516100db9190610fcd565b60405180910390f35b6100fe60048036038101906100f99190610fe8565b6103fd565b005b61011a60048036038101906101159190610fe8565b61049c565b60405161012b95949392919061126d565b60405180910390f35b61013c61074b565b005b61014661075f565b60405161015391906112d5565b60405180910390f35b610164610765565b60405161017191906112ff565b60405180910390f35b610194600480360381019061018f919061131a565b61078e565b005b6101b060048036038101906101ab919061135a565b610a4d565b005b6101ba610ad3565b60018151116101fe576040517f08c379a00000000000000000000000000000000000000000000000000000000081526004016101f5906113d3565b60405180910390fd5b600060026000600154815260200190815260200160002090508281600001908161022891906115ff565b5060018160050160006101000a81548160ff02191690831515021790555060008160050160016101000a81548160ff02191690831515021790555060005b82518110156102d35781600101838281518110610286576102856116d1565b5b60200260200101519080600181540180825580915050600190039060005260206000200160009091909190915090816102bf91906115ff565b5080806102cb9061172f565b915050610266565b506001547ffaf65a16b84baedeea7edb870d225726a8e3020e445d891a7db52179537038028484604051610308929190611777565b60405180910390a2600160008154809291906103239061172f565b9190505550505050565b6000826002600082815260200190815260200160002060050160009054906101000a900460ff16610393576040517f08c379a000000000000000000000000000000000000000000000000000000000815260040161038a906117fa565b60405180910390fd5b6002600085815260200190815260200160002060030160008473ffffffffffffffffffffffffffffffffffffffff1673ffffffffffffffffffffffffffffffffffffffff16815260200190815260200160002060009054906101000a900460ff1691505092915050565b610405610ad3565b806002600082815260200190815260200160002060050160009054906101000a900460ff16610469576040517f08c379a0000000000000000000000000000000000000000000000000000000008152600401610460906117fa565b60405180910390fd5b60016002600084815260200190815260200160002060050160016101000a81548160ff0219169083151502179055505050565b6060806060600080856002600082815260200190815260200160002060050160009054906101000a900460ff16610508576040517f08c379a00000000000000000000000000000000000000000000000000000000081526004016104ff906117fa565b60405180910390fd5b600060026000898152602001908152602001600020905080600001805461052e90611422565b80601f016020809104026020016040519081016040528092919081815260200182805461055a90611422565b80156105a75780601f1061057c576101008083540402835291602001916105a7565b820191906000526020600020905b81548152906001019060200180831161058a57829003601f168201915b5050505050965080600101805480602002602001604051908101604052809291908181526020016000905b8282101561067e5783829060005260206000200180546105f190611422565b80601f016020809104026020016040519081016040528092919081815260200182805461061d90611422565b801561066a5780601f1061063f5761010080835404028352916020019161066a565b820191906000526020600020905b81548152906001019060200180831161064d57829003601f168201915b5050505050815260200190600101906105d2565b505050509550855167ffffffffffffffff81111561069f5761069e610c55565b5b6040519080825280602002602001820160405280156106cd5781602001602082028036833780820191505090505b50945060005b86518110156107245781600201600082815260200190815260200160002054868281518110610705576107046116d1565b5b602002602001018181525050808061071c9061172f565b9150506106d3565b50806004015493508060050160019054906101000a900460ff169250505091939590929450565b610753610ad3565b61075d6000610b5a565b565b60015481565b60008060009054906101000a900473ffffffffffffffffffffffffffffffffffffffff16905090565b816002600082815260200190815260200160002060050160009054906101000a900460ff166107f2576040517f08c379a00000000000000000000000000000000000000000000000000000000081526004016107e9906117fa565b60405180910390fd5b60006002600085815260200190815260200160002090508060050160019054906101000a900460ff161561085b576040517f08c379a000000000000000000000000000000000000000000000000000000000815260040161085290611866565b60405180910390fd5b8060030160003373ffffffffffffffffffffffffffffffffffffffff1673ffffffffffffffffffffffffffffffffffffffff16815260200190815260200160002060009054906101000a900460ff16156108ea576040517f08c379a00000000000000000000000000000000000000000000000000000000081526004016108e1906118d2565b60405180910390fd5b80600101805490508310610933576040517f08c379a000000000000000000000000000000000000000000000000000000000815260040161092a9061193e565b60405180910390fd5b80600201600084815260200190815260200160002060008154809291906109599061172f565b919050555060018160030160003373ffffffffffffffffffffffffffffffffffffffff1673ffffffffffffffffffffffffffffffffffffffff16815260200190815260200160002060006101000a81548160ff02191690831515021790555080600201600082600401548152602001908152602001600020548160020160008581526020019081526020016000205411156109f8578281600401819055505b3373ffffffffffffffffffffffffffffffffffffffff16847f1abe610cf2bf87e57dcc1181fcf5ac0934e843d8344ab9eed6e86c799f62585e85604051610a3f91906112d5565b60405180910390a350505050565b610a55610ad3565b600073ffffffffffffffffffffffffffffffffffffffff168173ffffffffffffffffffffffffffffffffffffffff1603610ac75760006040517f1e4fbdf7000000000000000000000000000000000000000000000000000000008152600401610abe91906112ff565b60405180910390fd5b610ad081610b5a565b50565b610adb610c1e565b73ffffffffffffffffffffffffffffffffffffffff16610af9610765565b73ffffffffffffffffffffffffffffffffffffffff1614610b5857610b1c610c1e565b6040517f118cdaa7000000000000000000000000000000000000000000000000000000008152600401610b4f91906112ff565b60405180910390fd5b565b60008060009054906101000a900473ffffffffffffffffffffffffffffffffffffffff169050816000806101000a81548173ffffffffffffffffffffffffffffffffffffffff021916908373ffffffffffffffffffffffffffffffffffffffff1602179055508173ffffffffffffffffffffffffffffffffffffffff168173ffffffffffffffffffffffffffffffffffffffff167f8be0079c531659141344cd1fd0a4f28419497f9722a3daafe3b4186f6b6457e060405160405180910390a35050565b600033905090565b6000604051905090565b600080fd5b600080fd5b600080fd5b600080fd5b6000601f19601f8301169050919050565b7f4e487b7100000000000000000000000000000000000000000000000000000000600052604160045260246000fd5b610c8d82610c44565b810181811067ffffffffffffffff82111715610cac57610cab610c55565b5b80604052505050565b6000610cbf610c26565b9050610ccb8282610c84565b919050565b600067ffffffffffffffff821115610ceb57610cea610c55565b5b610cf482610c44565b9050602081019050919050565b82818337600083830152505050565b6000610d23610d1e84610cd0565b610cb5565b905082815260208101848484011115610d3f57610d3e610c3f565b5b610d4a848285610d01565b509392505050565b600082601f830112610d6757610d66610c3a565b5b8135610d77848260208601610d10565b91505092915050565b600067ffffffffffffffff821115610d9b57610d9a610c55565b5b602082029050602081019050919050565b600080fd5b6000610dc4610dbf84610d80565b610cb5565b90508083825260208201905060208402830185811115610de757610de6610dac565b5b835b81811015610e2e57803567ffffffffffffffff811115610e0c57610e0b610c3a565b5b808601610e198982610d52565b85526020850194505050602081019050610de9565b5050509392505050565b600082601f830112610e4d57610e4c610c3a565b5b8135610e5d848260208601610db1565b91505092915050565b60008060408385031215610e7d57610e7c610c30565b5b600083013567ffffffffffffffff811115610e9b57610e9a610c35565b5b610ea785828601610d52565b925050602083013567ffffffffffffffff811115610ec857610ec7610c35565b5b610ed485828601610e38565b9150509250929050565b6000819050919050565b610ef181610ede565b8114610efc57600080fd5b50565b600081359050610f0e81610ee8565b92915050565b600073ffffffffffffffffffffffffffffffffffffffff82169050919050565b6000610f3f82610f14565b9050919050565b610f4f81610f34565b8114610f5a57600080fd5b50565b600081359050610f6c81610f46565b92915050565b60008060408385031215610f8957610f88610c30565b5b6000610f9785828601610eff565b9250506020610fa885828601610f5d565b9150509250929050565b60008115159050919050565b610fc781610fb2565b82525050565b6000602082019050610fe26000830184610fbe565b92915050565b600060208284031215610ffe57610ffd610c30565b5b600061100c84828501610eff565b91505092915050565b600081519050919050565b600082825260208201905092915050565b60005b8381101561104f578082015181840152602081019050611034565b60008484015250505050565b600061106682611015565b6110708185611020565b9350611080818560208601611031565b61108981610c44565b840191505092915050565b600081519050919050565b600082825260208201905092915050565b6000819050602082019050919050565b600082825260208201905092915050565b60006110dc82611015565b6110e681856110c0565b93506110f6818560208601611031565b6110ff81610c44565b840191505092915050565b600061111683836110d1565b905092915050565b6000602082019050919050565b600061113682611094565b611140818561109f565b935083602082028501611152856110b0565b8060005b8581101561118e578484038952815161116f858261110a565b945061117a8361111e565b925060208a01995050600181019050611156565b50829750879550505050505092915050565b600081519050919050565b600082825260208201905092915050565b6000819050602082019050919050565b6111d581610ede565b82525050565b60006111e783836111cc565b60208301905092915050565b6000602082019050919050565b600061120b826111a0565b61121581856111ab565b9350611220836111bc565b8060005b8381101561125157815161123888826111db565b9750611243836111f3565b925050600181019050611224565b5085935050505092915050565b61126781610ede565b82525050565b600060a0820190508181036000830152611287818861105b565b9050818103602083015261129b818761112b565b905081810360408301526112af8186611200565b90506112be606083018561125e565b6112cb6080830184610fbe565b9695505050505050565b60006020820190506112ea600083018461125e565b92915050565b6112f981610f34565b82525050565b600060208201905061131460008301846112f0565b92915050565b6000806040838503121561133157611330610c30565b5b600061133f85828601610eff565b925050602061135085828601610eff565b9150509250929050565b6000602082840312156113705761136f610c30565b5b600061137e84828501610f5d565b91505092915050565b7f4174206c65617374203220636f6d70616e696573207265717569726564000000600082015250565b60006113bd601d83611020565b91506113c882611387565b602082019050919050565b600060208201905081810360008301526113ec816113b0565b9050919050565b7f4e487b7100000000000000000000000000000000000000000000000000000000600052602260045260246000fd5b6000600282049050600182168061143a57607f821691505b60208210810361144d5761144c6113f3565b5b50919050565b60008190508160005260206000209050919050565b60006020601f8301049050919050565b600082821b905092915050565b6000600883026114b57fffffffffffffffffffffffffffffffffffffffffffffffffffffffffffffffff82611478565b6114bf8683611478565b95508019841693508086168417925050509392505050565b6000819050919050565b60006114fc6114f76114f284610ede565b6114d7565b610ede565b9050919050565b6000819050919050565b611516836114e1565b61152a61152282611503565b848454611485565b825550505050565b600090565b61153f611532565b61154a81848461150d565b505050565b5b8181101561156e57611563600082611537565b600181019050611550565b5050565b601f8211156115b35761158481611453565b61158d84611468565b8101602085101561159c578190505b6115b06115a885611468565b83018261154f565b50505b505050565b600082821c905092915050565b60006115d6600019846008026115b8565b1980831691505092915050565b60006115ef83836115c5565b9150826002028217905092915050565b61160882611015565b67ffffffffffffffff81111561162157611620610c55565b5b61162b8254611422565b611636828285611572565b600060209050601f8311600181146116695760008415611657578287015190505b61166185826115e3565b8655506116c9565b601f19841661167786611453565b60005b8281101561169f5784890151825560018201915060208501945060208101905061167a565b868310156116bc57848901516116b8601f8916826115c5565b8355505b6001600288020188555050505b505050505050565b7f4e487b7100000000000000000000000000000000000000000000000000000000600052603260045260246000fd5b7f4e487b7100000000000000000000000000000000000000000000000000000000600052601160045260246000fd5b600061173a82610ede565b91507fffffffffffffffffffffffffffffffffffffffffffffffffffffffffffffffff820361176c5761176b611700565b5b600182019050919050565b60006040820190508181036000830152611791818561105b565b905081810360208301526117a5818461112b565b90509392505050565b7f4576656e7420646f6573206e6f74206578697374000000000000000000000000600082015250565b60006117e4601483611020565b91506117ef826117ae565b602082019050919050565b60006020820190508181036000830152611813816117d7565b9050919050565b7f566f74696e6720656e6465640000000000000000000000000000000000000000600082015250565b6000611850600c83611020565b915061185b8261181a565b602082019050919050565b6000602082019050818103600083015261187f81611843565b9050919050565b7f416c726561647920766f74656400000000000000000000000000000000000000600082015250565b60006118bc600d83611020565b91506118c782611886565b602082019050919050565b600060208201905081810360008301526118eb816118af565b9050919050565b7f496e76616c696420636f6d70616e790000000000000000000000000000000000600082015250565b6000611928600f83611020565b9150611933826118f2565b602082019050919050565b600060208201905081810360008301526119578161191b565b905091905056fea2646970667358221220f1ae7d4e7cb801676059ff546c7f75f58acf9e0e4cacd8ee2cd7ec4a0f8202c264736f6c63430008140033","opcodes":"PUSH1 0x80 PUSH1 0x40 MSTORE CALLVALUE DUP1 ISZERO PUSH3 0x11 JUMPI PUSH1 0x0 DUP1 REVERT JUMPDEST POP CALLER PUSH1 0x0 PUSH20 0xFFFFFFFFFFFFFFFFFFFFFFFFFFFFFFFFFFFFFFFF AND DUP2 PUSH20 0xFFFFFFFFFFFFFFFFFFFFFFFFFFFFFFFFFFFFFFFF AND SUB PUSH3 0x88 JUMPI PUSH1 0x0 PUSH1 0x40 MLOAD PUSH32 0x1E4FBDF700000000000000000000000000000000000000000000000000000000 DUP2 MSTORE PUSH1 0x4 ADD PUSH3 0x7F SWAP2 SWAP1 PUSH3 0x1A9 JUMP JUMPDEST PUSH1 0x40 MLOAD DUP1 SWAP2 SUB SWAP1 REVERT JUMPDEST PUSH3 0x99 DUP2 PUSH3 0xA0 PUSH1 0x20 SHL PUSH1 0x20 SHR JUMP JUMPDEST POP PUSH3 0x1C6 JUMP JUMPDEST PUSH1 0x0 DUP1 PUSH1 0x0 SWAP1 SLOAD SWAP1 PUSH2 0x100 EXP SWAP1 DIV PUSH20 0xFFFFFFFFFFFFFFFFFFFFFFFFFFFFFFFFFFFFFFFF AND SWAP1 POP DUP2 PUSH1 0x0 DUP1 PUSH2 0x100 EXP DUP2 SLOAD DUP2 PUSH20 0xFFFFFFFFFFFFFFFFFFFFFFFFFFFFFFFFFFFFFFFF MUL NOT AND SWAP1 DUP4 PUSH20 0xFFFFFFFFFFFFFFFFFFFFFFFFFFFFFFFFFFFFFFFF AND MUL OR SWAP1 SSTORE POP DUP2 PUSH20 0xFFFFFFFFFFFFFFFFFFFFFFFFFFFFFFFFFFFFFFFF AND DUP2 PUSH20 0xFFFFFFFFFFFFFFFFFFFFFFFFFFFFFFFFFFFFFFFF AND PUSH32 0x8BE0079C531659141344CD1FD0A4F28419497F9722A3DAAFE3B4186F6B6457E0 PUSH1 0x40 MLOAD PUSH1 0x40 MLOAD DUP1 SWAP2 SUB SWAP1 LOG3 POP POP JUMP JUMPDEST PUSH1 0x0 PUSH20 0xFFFFFFFFFFFFFFFFFFFFFFFFFFFFFFFFFFFFFFFF DUP3 AND SWAP1 POP SWAP2 SWAP1 POP JUMP JUMPDEST PUSH1 0x0 PUSH3 0x191 DUP3 PUSH3 0x164 JUMP JUMPDEST SWAP1 POP SWAP2 SWAP1 POP JUMP JUMPDEST PUSH3 0x1A3 DUP2 PUSH3 0x184 JUMP JUMPDEST DUP3 MSTORE POP POP JUMP JUMPDEST PUSH1 0x0 PUSH1 0x20 DUP3 ADD SWAP1 POP PUSH3 0x1C0 PUSH1 0x0 DUP4 ADD DUP5 PUSH3 0x198 JUMP JUMPDEST SWAP3 SWAP2 POP POP JUMP JUMPDEST PUSH2 0x1994 DUP1 PUSH3 0x1D6 PUSH1 0x0 CODECOPY PUSH1 0x0 RETURN INVALID PUSH1 0x80 PUSH1 0x40 MSTORE CALLVALUE DUP1 ISZERO PUSH2 0x10 JUMPI PUSH1 0x0 DUP1 REVERT JUMPDEST POP PUSH1 0x4 CALLDATASIZE LT PUSH2 0x93 JUMPI PUSH1 0x0 CALLDATALOAD PUSH1 0xE0 SHR DUP1 PUSH4 0x715018A6 GT PUSH2 0x66 JUMPI DUP1 PUSH4 0x715018A6 EQ PUSH2 0x134 JUMPI DUP1 PUSH4 0x71BE2E4A EQ PUSH2 0x13E JUMPI DUP1 PUSH4 0x8DA5CB5B EQ PUSH2 0x15C JUMPI DUP1 PUSH4 0xB384ABEF EQ PUSH2 0x17A JUMPI DUP1 PUSH4 0xF2FDE38B EQ PUSH2 0x196 JUMPI PUSH2 0x93 JUMP JUMPDEST DUP1 PUSH4 0x3867F207 EQ PUSH2 0x98 JUMPI DUP1 PUSH4 0x43859632 EQ PUSH2 0xB4 JUMPI DUP1 PUSH4 0x649F89A5 EQ PUSH2 0xE4 JUMPI DUP1 PUSH4 0x6D1884E0 EQ PUSH2 0x100 JUMPI JUMPDEST PUSH1 0x0 DUP1 REVERT JUMPDEST PUSH2 0xB2 PUSH1 0x4 DUP1 CALLDATASIZE SUB DUP2 ADD SWAP1 PUSH2 0xAD SWAP2 SWAP1 PUSH2 0xE66 JUMP JUMPDEST PUSH2 0x1B2 JUMP JUMPDEST STOP JUMPDEST PUSH2 0xCE PUSH1 0x4 DUP1 CALLDATASIZE SUB DUP2 ADD SWAP1 PUSH2 0xC9 SWAP2 SWAP1 PUSH2 0xF72 JUMP JUMPDEST PUSH2 0x32D JUMP JUMPDEST PUSH1 0x40 MLOAD PUSH2 0xDB SWAP2 SWAP1 PUSH2 0xFCD JUMP JUMPDEST PUSH1 0x40 MLOAD DUP1 SWAP2 SUB SWAP1 RETURN JUMPDEST PUSH2 0xFE PUSH1 0x4 DUP1 CALLDATASIZE SUB DUP2 ADD SWAP1 PUSH2 0xF9 SWAP2 SWAP1 PUSH2 0xFE8 JUMP JUMPDEST PUSH2 0x3FD JUMP JUMPDEST STOP JUMPDEST PUSH2 0x11A PUSH1 0x4 DUP1 CALLDATASIZE SUB DUP2 ADD SWAP1 PUSH2 0x115 SWAP2 SWAP1 PUSH2 0xFE8 JUMP JUMPDEST PUSH2 0x49C JUMP JUMPDEST PUSH1 0x40 MLOAD PUSH2 0x12B SWAP6 SWAP5 SWAP4 SWAP3 SWAP2 SWAP1 PUSH2 0x126D JUMP JUMPDEST PUSH1 0x40 MLOAD DUP1 SWAP2 SUB SWAP1 RETURN JUMPDEST PUSH2 0x13C PUSH2 0x74B JUMP JUMPDEST STOP JUMPDEST PUSH2 0x146 PUSH2 0x75F JUMP JUMPDEST PUSH1 0x40 MLOAD PUSH2 0x153 SWAP2 SWAP1 PUSH2 0x12D5 JUMP JUMPDEST PUSH1 0x40 MLOAD DUP1 SWAP2 SUB SWAP1 RETURN JUMPDEST PUSH2 0x164 PUSH2 0x765 JUMP JUMPDEST PUSH1 0x40 MLOAD PUSH2 0x171 SWAP2 SWAP1 PUSH2 0x12FF JUMP JUMPDEST PUSH1 0x40 MLOAD DUP1 SWAP2 SUB SWAP1 RETURN JUMPDEST PUSH2 0x194 PUSH1 0x4 DUP1 CALLDATASIZE SUB DUP2 ADD SWAP1 PUSH2 0x18F SWAP2 SWAP1 PUSH2 0x131A JUMP JUMPDEST PUSH2 0x78E JUMP JUMPDEST STOP JUMPDEST PUSH2 0x1B0 PUSH1 0x4 DUP1 CALLDATASIZE SUB DUP2 ADD SWAP1 PUSH2 0x1AB SWAP2 SWAP1 PUSH2 0x135A JUMP JUMPDEST PUSH2 0xA4D JUMP JUMPDEST STOP JUMPDEST PUSH2 0x1BA PUSH2 0xAD3 JUMP JUMPDEST PUSH1 0x1 DUP2 MLOAD GT PUSH2 0x1FE JUMPI PUSH1 0x40 MLOAD PUSH32 0x8C379A000000000000000000000000000000000000000000000000000000000 DUP2 MSTORE PUSH1 0x4 ADD PUSH2 0x1F5 SWAP1 PUSH2 0x13D3 JUMP JUMPDEST PUSH1 0x40 MLOAD DUP1 SWAP2 SUB SWAP1 REVERT JUMPDEST PUSH1 0x0 PUSH1 0x2 PUSH1 0x0 PUSH1 0x1 SLOAD DUP2 MSTORE PUSH1 0x20 ADD SWAP1 DUP2 MSTORE PUSH1 0x20 ADD PUSH1 0x0 KECCAK256 SWAP1 POP DUP3 DUP2 PUSH1 0x0 ADD SWAP1 DUP2 PUSH2 0x228 SWAP2 SWAP1 PUSH2 0x15FF JUMP JUMPDEST POP PUSH1 0x1 DUP2 PUSH1 0x5 ADD PUSH1 0x0 PUSH2 0x100 EXP DUP2 SLOAD DUP2 PUSH1 0xFF MUL NOT AND SWAP1 DUP4 ISZERO ISZERO MUL OR SWAP1 SSTORE POP PUSH1 0x0 DUP2 PUSH1 0x5 ADD PUSH1 0x1 PUSH2 0x100 EXP DUP2 SLOAD DUP2 PUSH1 0xFF MUL NOT AND SWAP1 DUP4 ISZERO ISZERO MUL OR SWAP1 SSTORE POP PUSH1 0x0 JUMPDEST DUP3 MLOAD DUP2 LT ISZERO PUSH2 0x2D3 JUMPI DUP2 PUSH1 0x1 ADD DUP4 DUP3 DUP2 MLOAD DUP2 LT PUSH2 0x286 JUMPI PUSH2 0x285 PUSH2 0x16D1 JUMP JUMPDEST JUMPDEST PUSH1 0x20 MUL PUSH1 0x20 ADD ADD MLOAD SWAP1 DUP1 PUSH1 0x1 DUP2 SLOAD ADD DUP1 DUP3 SSTORE DUP1 SWAP2 POP POP PUSH1 0x1 SWAP1 SUB SWAP1 PUSH1 0x0 MSTORE PUSH1 0x20 PUSH1 0x0 KECCAK256 ADD PUSH1 0x0 SWAP1 SWAP2 SWAP1 SWAP2 SWAP1 SWAP2 POP SWAP1 DUP2 PUSH2 0x2BF SWAP2 SWAP1 PUSH2 0x15FF JUMP JUMPDEST POP DUP1 DUP1 PUSH2 0x2CB SWAP1 PUSH2 0x172F JUMP JUMPDEST SWAP2 POP POP PUSH2 0x266 JUMP JUMPDEST POP PUSH1 0x1 SLOAD PUSH32 0xFAF65A16B84BAEDEEA7EDB870D225726A8E3020E445D891A7DB5217953703802 DUP5 DUP5 PUSH1 0x40 MLOAD PUSH2 0x308 SWAP3 SWAP2 SWAP1 PUSH2 0x1777 JUMP JUMPDEST PUSH1 0x40 MLOAD DUP1 SWAP2 SUB SWAP1 LOG2 PUSH1 0x1 PUSH1 0x0 DUP2 SLOAD DUP1 SWAP3 SWAP2 SWAP1 PUSH2 0x323 SWAP1 PUSH2 0x172F JUMP JUMPDEST SWAP2 SWAP1 POP SSTORE POP POP POP POP JUMP JUMPDEST PUSH1 0x0 DUP3 PUSH1 0x2 PUSH1 0x0 DUP3 DUP2 MSTORE PUSH1 0x20 ADD SWAP1 DUP2 MSTORE PUSH1 0x20 ADD PUSH1 0x0 KECCAK256 PUSH1 0x5 ADD PUSH1 0x0 SWAP1 SLOAD SWAP1 PUSH2 0x100 EXP SWAP1 DIV PUSH1 0xFF AND PUSH2 0x393 JUMPI PUSH1 0x40 MLOAD PUSH32 0x8C379A000000000000000000000000000000000000000000000000000000000 DUP2 MSTORE PUSH1 0x4 ADD PUSH2 0x38A SWAP1 PUSH2 0x17FA JUMP JUMPDEST PUSH1 0x40 MLOAD DUP1 SWAP2 SUB SWAP1 REVERT JUMPDEST PUSH1 0x2 PUSH1 0x0 DUP6 DUP2 MSTORE PUSH1 0x20 ADD SWAP1 DUP2 MSTORE PUSH1 0x20 ADD PUSH1 0x0 KECCAK256 PUSH1 0x3 ADD PUSH1 0x0 DUP5 PUSH20 0xFFFFFFFFFFFFFFFFFFFFFFFFFFFFFFFFFFFFFFFF AND PUSH20 0xFFFFFFFFFFFFFFFFFFFFFFFFFFFFFFFFFFFFFFFF AND DUP2 MSTORE PUSH1 0x20 ADD SWAP1 DUP2 MSTORE PUSH1 0x20 ADD PUSH1 0x0 KECCAK256 PUSH1 0x0 SWAP1 SLOAD SWAP1 PUSH2 0x100 EXP SWAP1 DIV PUSH1 0xFF AND SWAP2 POP POP SWAP3 SWAP2 POP POP JUMP JUMPDEST PUSH2 0x405 PUSH2 0xAD3 JUMP JUMPDEST DUP1 PUSH1 0x2 PUSH1 0x0 DUP3 DUP2 MSTORE PUSH1 0x20 ADD SWAP1 DUP2 MSTORE PUSH1 0x20 ADD PUSH1 0x0 KECCAK256 PUSH1 0x5 ADD PUSH1 0x0 SWAP1 SLOAD SWAP1 PUSH2 0x100 EXP SWAP1 DIV PUSH1 0xFF AND PUSH2 0x469 JUMPI PUSH1 0x40 MLOAD PUSH32 0x8C379A000000000000000000000000000000000000000000000000000000000 DUP2 MSTORE PUSH1 0x4 ADD PUSH2 0x460 SWAP1 PUSH2 0x17FA JUMP JUMPDEST PUSH1 0x40 MLOAD DUP1 SWAP2 SUB SWAP1 REVERT JUMPDEST PUSH1 0x1 PUSH1 0x2 PUSH1 0x0 DUP5 DUP2 MSTORE PUSH1 0x20 ADD SWAP1 DUP2 MSTORE PUSH1 0x20 ADD PUSH1 0x0 KECCAK256 PUSH1 0x5 ADD PUSH1 0x1 PUSH2 0x100 EXP DUP2 SLOAD DUP2 PUSH1 0xFF MUL NOT AND SWAP1 DUP4 ISZERO ISZERO MUL OR SWAP1 SSTORE POP POP POP JUMP JUMPDEST PUSH1 0x60 DUP1 PUSH1 0x60 PUSH1 0x0 DUP1 DUP6 PUSH1 0x2 PUSH1 0x0 DUP3 DUP2 MSTORE PUSH1 0x20 ADD SWAP1 DUP2 MSTORE PUSH1 0x20 ADD PUSH1 0x0 KECCAK256 PUSH1 0x5 ADD PUSH1 0x0 SWAP1 SLOAD SWAP1 PUSH2 0x100 EXP SWAP1 DIV PUSH1 0xFF AND PUSH2 0x508 JUMPI PUSH1 0x40 MLOAD PUSH32 0x8C379A000000000000000000000000000000000000000000000000000000000 DUP2 MSTORE PUSH1 0x4 ADD PUSH2 0x4FF SWAP1 PUSH2 0x17FA JUMP JUMPDEST PUSH1 0x40 MLOAD DUP1 SWAP2 SUB SWAP1 REVERT JUMPDEST PUSH1 0x0 PUSH1 0x2 PUSH1 0x0 DUP10 DUP2 MSTORE PUSH1 0x20 ADD SWAP1 DUP2 MSTORE PUSH1 0x20 ADD PUSH1 0x0 KECCAK256 SWAP1 POP DUP1 PUSH1 0x0 ADD DUP1 SLOAD PUSH2 0x52E SWAP1 PUSH2 0x1422 JUMP JUMPDEST DUP1 PUSH1 0x1F ADD PUSH1 0x20 DUP1 SWAP2 DIV MUL PUSH1 0x20 ADD PUSH1 0x40 MLOAD SWAP1 DUP2 ADD PUSH1 0x40 MSTORE DUP1 SWAP3 SWAP2 SWAP1 DUP2 DUP2 MSTORE PUSH1 0x20 ADD DUP3 DUP1 SLOAD PUSH2 0x55A SWAP1 PUSH2 0x1422 JUMP JUMPDEST DUP1 ISZERO PUSH2 0x5A7 JUMPI DUP1 PUSH1 0x1F LT PUSH2 0x57C JUMPI PUSH2 0x100 DUP1 DUP4 SLOAD DIV MUL DUP4 MSTORE SWAP2 PUSH1 0x20 ADD SWAP2 PUSH2 0x5A7 JUMP JUMPDEST DUP3 ADD SWAP2 SWAP1 PUSH1 0x0 MSTORE PUSH1 0x20 PUSH1 0x0 KECCAK256 SWAP1 JUMPDEST DUP2 SLOAD DUP2 MSTORE SWAP1 PUSH1 0x1 ADD SWAP1 PUSH1 0x20 ADD DUP1 DUP4 GT PUSH2 0x58A JUMPI DUP3 SWAP1 SUB PUSH1 0x1F AND DUP3 ADD SWAP2 JUMPDEST POP POP POP POP POP SWAP7 POP DUP1 PUSH1 0x1 ADD DUP1 SLOAD DUP1 PUSH1 0x20 MUL PUSH1 0x20 ADD PUSH1 0x40 MLOAD SWAP1 DUP2 ADD PUSH1 0x40 MSTORE DUP1 SWAP3 SWAP2 SWAP1 DUP2 DUP2 MSTORE PUSH1 0x20 ADD PUSH1 0x0 SWAP1 JUMPDEST DUP3 DUP3 LT ISZERO PUSH2 0x67E JUMPI DUP4 DUP3 SWAP1 PUSH1 0x0 MSTORE PUSH1 0x20 PUSH1 0x0 KECCAK256 ADD DUP1 SLOAD PUSH2 0x5F1 SWAP1 PUSH2 0x1422 JUMP JUMPDEST DUP1 PUSH1 0x1F ADD PUSH1 0x20 DUP1 SWAP2 DIV MUL PUSH1 0x20 ADD PUSH1 0x40 MLOAD SWAP1 DUP2 ADD PUSH1 0x40 MSTORE DUP1 SWAP3 SWAP2 SWAP1 DUP2 DUP2 MSTORE PUSH1 0x20 ADD DUP3 DUP1 SLOAD PUSH2 0x61D SWAP1 PUSH2 0x1422 JUMP JUMPDEST DUP1 ISZERO PUSH2 0x66A JUMPI DUP1 PUSH1 0x1F LT PUSH2 0x63F JUMPI PUSH2 0x100 DUP1 DUP4 SLOAD DIV MUL DUP4 MSTORE SWAP2 PUSH1 0x20 ADD SWAP2 PUSH2 0x66A JUMP JUMPDEST DUP3 ADD SWAP2 SWAP1 PUSH1 0x0 MSTORE PUSH1 0x20 PUSH1 0x0 KECCAK256 SWAP1 JUMPDEST DUP2 SLOAD DUP2 MSTORE SWAP1 PUSH1 0x1 ADD SWAP1 PUSH1 0x20 ADD DUP1 DUP4 GT PUSH2 0x64D JUMPI DUP3 SWAP1 SUB PUSH1 0x1F AND DUP3 ADD SWAP2 JUMPDEST POP POP POP POP POP DUP2 MSTORE PUSH1 0x20 ADD SWAP1 PUSH1 0x1 ADD SWAP1 PUSH2 0x5D2 JUMP JUMPDEST POP POP POP POP SWAP6 POP DUP6 MLOAD PUSH8 0xFFFFFFFFFFFFFFFF DUP2 GT ISZERO PUSH2 0x69F JUMPI PUSH2 0x69E PUSH2 0xC55 JUMP JUMPDEST JUMPDEST PUSH1 0x40 MLOAD SWAP1 DUP1 DUP3 MSTORE DUP1 PUSH1 0x20 MUL PUSH1 0x20 ADD DUP3 ADD PUSH1 0x40 MSTORE DUP1 ISZERO PUSH2 0x6CD JUMPI DUP2 PUSH1 0x20 ADD PUSH1 0x20 DUP3 MUL DUP1 CALLDATASIZE DUP4 CALLDATACOPY DUP1 DUP3 ADD SWAP2 POP POP SWAP1 POP JUMPDEST POP SWAP5 POP PUSH1 0x0 JUMPDEST DUP7 MLOAD DUP2 LT ISZERO PUSH2 0x724 JUMPI DUP2 PUSH1 0x2 ADD PUSH1 0x0 DUP3 DUP2 MSTORE PUSH1 0x20 ADD SWAP1 DUP2 MSTORE PUSH1 0x20 ADD PUSH1 0x0 KECCAK256 SLOAD DUP7 DUP3 DUP2 MLOAD DUP2 LT PUSH2 0x705 JUMPI PUSH2 0x704 PUSH2 0x16D1 JUMP JUMPDEST JUMPDEST PUSH1 0x20 MUL PUSH1 0x20 ADD ADD DUP2 DUP2 MSTORE POP POP DUP1 DUP1 PUSH2 0x71C SWAP1 PUSH2 0x172F JUMP JUMPDEST SWAP2 POP POP PUSH2 0x6D3 JUMP JUMPDEST POP DUP1 PUSH1 0x4 ADD SLOAD SWAP4 POP DUP1 PUSH1 0x5 ADD PUSH1 0x1 SWAP1 SLOAD SWAP1 PUSH2 0x100 EXP SWAP1 DIV PUSH1 0xFF AND SWAP3 POP POP POP SWAP2 SWAP4 SWAP6 SWAP1 SWAP3 SWAP5 POP JUMP JUMPDEST PUSH2 0x753 PUSH2 0xAD3 JUMP JUMPDEST PUSH2 0x75D PUSH1 0x0 PUSH2 0xB5A JUMP JUMPDEST JUMP JUMPDEST PUSH1 0x1 SLOAD DUP2 JUMP JUMPDEST PUSH1 0x0 DUP1 PUSH1 0x0 SWAP1 SLOAD SWAP1 PUSH2 0x100 EXP SWAP1 DIV PUSH20 0xFFFFFFFFFFFFFFFFFFFFFFFFFFFFFFFFFFFFFFFF AND SWAP1 POP SWAP1 JUMP JUMPDEST DUP2 PUSH1 0x2 PUSH1 0x0 DUP3 DUP2 MSTORE PUSH1 0x20 ADD SWAP1 DUP2 MSTORE PUSH1 0x20 ADD PUSH1 0x0 KECCAK256 PUSH1 0x5 ADD PUSH1 0x0 SWAP1 SLOAD SWAP1 PUSH2 0x100 EXP SWAP1 DIV PUSH1 0xFF AND PUSH2 0x7F2 JUMPI PUSH1 0x40 MLOAD PUSH32 0x8C379A000000000000000000000000000000000000000000000000000000000 DUP2 MSTORE PUSH1 0x4 ADD PUSH2 0x7E9 SWAP1 PUSH2 0x17FA JUMP JUMPDEST PUSH1 0x40 MLOAD DUP1 SWAP2 SUB SWAP1 REVERT JUMPDEST PUSH1 0x0 PUSH1 0x2 PUSH1 0x0 DUP6 DUP2 MSTORE PUSH1 0x20 ADD SWAP1 DUP2 MSTORE PUSH1 0x20 ADD PUSH1 0x0 KECCAK256 SWAP1 POP DUP1 PUSH1 0x5 ADD PUSH1 0x1 SWAP1 SLOAD SWAP1 PUSH2 0x100 EXP SWAP1 DIV PUSH1 0xFF AND ISZERO PUSH2 0x85B JUMPI PUSH1 0x40 MLOAD PUSH32 0x8C379A000000000000000000000000000000000000000000000000000000000 DUP2 MSTORE PUSH1 0x4 ADD PUSH2 0x852 SWAP1 PUSH2 0x1866 JUMP JUMPDEST PUSH1 0x40 MLOAD DUP1 SWAP2 SUB SWAP1 REVERT JUMPDEST DUP1 PUSH1 0x3 ADD PUSH1 0x0 CALLER PUSH20 0xFFFFFFFFFFFFFFFFFFFFFFFFFFFFFFFFFFFFFFFF AND PUSH20 0xFFFFFFFFFFFFFFFFFFFFFFFFFFFFFFFFFFFFFFFF AND DUP2 MSTORE PUSH1 0x20 ADD SWAP1 DUP2 MSTORE PUSH1 0x20 ADD PUSH1 0x0 KECCAK256 PUSH1 0x0 SWAP1 SLOAD SWAP1 PUSH2 0x100 EXP SWAP1 DIV PUSH1 0xFF AND ISZERO PUSH2 0x8EA JUMPI PUSH1 0x40 MLOAD PUSH32 0x8C379A000000000000000000000000000000000000000000000000000000000 DUP2 MSTORE PUSH1 0x4 ADD PUSH2 0x8E1 SWAP1 PUSH2 0x18D2 JUMP JUMPDEST PUSH1 0x40 MLOAD DUP1 SWAP2 SUB SWAP1 REVERT JUMPDEST DUP1 PUSH1 0x1 ADD DUP1 SLOAD SWAP1 POP DUP4 LT PUSH2 0x933 JUMPI PUSH1 0x40 MLOAD PUSH32 0x8C379A000000000000000000000000000000000000000000000000000000000 DUP2 MSTORE PUSH1 0x4 ADD PUSH2 0x92A SWAP1 PUSH2 0x193E JUMP JUMPDEST PUSH1 0x40 MLOAD DUP1 SWAP2 SUB SWAP1 REVERT JUMPDEST DUP1 PUSH1 0x2 ADD PUSH1 0x0 DUP5 DUP2 MSTORE PUSH1 0x20 ADD SWAP1 DUP2 MSTORE PUSH1 0x20 ADD PUSH1 0x0 KECCAK256 PUSH1 0x0 DUP2 SLOAD DUP1 SWAP3 SWAP2 SWAP1 PUSH2 0x959 SWAP1 PUSH2 0x172F JUMP JUMPDEST SWAP2 SWAP1 POP SSTORE POP PUSH1 0x1 DUP2 PUSH1 0x3 ADD PUSH1 0x0 CALLER PUSH20 0xFFFFFFFFFFFFFFFFFFFFFFFFFFFFFFFFFFFFFFFF AND PUSH20 0xFFFFFFFFFFFFFFFFFFFFFFFFFFFFFFFFFFFFFFFF AND DUP2 MSTORE PUSH1 0x20 ADD SWAP1 DUP2 MSTORE PUSH1 0x20 ADD PUSH1 0x0 KECCAK256 PUSH1 0x0 PUSH2 0x100 EXP DUP2 SLOAD DUP2 PUSH1 0xFF MUL NOT AND SWAP1 DUP4 ISZERO ISZERO MUL OR SWAP1 SSTORE POP DUP1 PUSH1 0x2 ADD PUSH1 0x0 DUP3 PUSH1 0x4 ADD SLOAD DUP2 MSTORE PUSH1 0x20 ADD SWAP1 DUP2 MSTORE PUSH1 0x20 ADD PUSH1 0x0 KECCAK256 SLOAD DUP2 PUSH1 0x2 ADD PUSH1 0x0 DUP6 DUP2 MSTORE PUSH1 0x20 ADD SWAP1 DUP2 MSTORE PUSH1 0x20 ADD PUSH1 0x0 KECCAK256 SLOAD GT ISZERO PUSH2 0x9F8 JUMPI DUP3 DUP2 PUSH1 0x4 ADD DUP2 SWAP1 SSTORE POP JUMPDEST CALLER PUSH20 0xFFFFFFFFFFFFFFFFFFFFFFFFFFFFFFFFFFFFFFFF AND DUP5 PUSH32 0x1ABE610CF2BF87E57DCC1181FCF5AC0934E843D8344AB9EED6E86C799F62585E DUP6 PUSH1 0x40 MLOAD PUSH2 0xA3F SWAP2 SWAP1 PUSH2 0x12D5 JUMP JUMPDEST PUSH1 0x40 MLOAD DUP1 SWAP2 SUB SWAP1 LOG3 POP POP POP POP JUMP JUMPDEST PUSH2 0xA55 PUSH2 0xAD3 JUMP JUMPDEST PUSH1 0x0 PUSH20 0xFFFFFFFFFFFFFFFFFFFFFFFFFFFFFFFFFFFFFFFF AND DUP2 PUSH20 0xFFFFFFFFFFFFFFFFFFFFFFFFFFFFFFFFFFFFFFFF AND SUB PUSH2 0xAC7 JUMPI PUSH1 0x0 PUSH1 0x40 MLOAD PUSH32 0x1E4FBDF700000000000000000000000000000000000000000000000000000000 DUP2 MSTORE PUSH1 0x4 ADD PUSH2 0xABE SWAP2 SWAP1 PUSH2 0x12FF JUMP JUMPDEST PUSH1 0x40 MLOAD DUP1 SWAP2 SUB SWAP1 REVERT JUMPDEST PUSH2 0xAD0 DUP2 PUSH2 0xB5A JUMP JUMPDEST POP JUMP JUMPDEST PUSH2 0xADB PUSH2 0xC1E JUMP JUMPDEST PUSH20 0xFFFFFFFFFFFFFFFFFFFFFFFFFFFFFFFFFFFFFFFF AND PUSH2 0xAF9 PUSH2 0x765 JUMP JUMPDEST PUSH20 0xFFFFFFFFFFFFFFFFFFFFFFFFFFFFFFFFFFFFFFFF AND EQ PUSH2 0xB58 JUMPI PUSH2 0xB1C PUSH2 0xC1E JUMP JUMPDEST PUSH1 0x40 MLOAD PUSH32 0x118CDAA700000000000000000000000000000000000000000000000000000000 DUP2 MSTORE PUSH1 0x4 ADD PUSH2 0xB4F SWAP2 SWAP1 PUSH2 0x12FF JUMP JUMPDEST PUSH1 0x40 MLOAD DUP1 SWAP2 SUB SWAP1 REVERT JUMPDEST JUMP JUMPDEST PUSH1 0x0 DUP1 PUSH1 0x0 SWAP1 SLOAD SWAP1 PUSH2 0x100 EXP SWAP1 DIV PUSH20 0xFFFFFFFFFFFFFFFFFFFFFFFFFFFFFFFFFFFFFFFF AND SWAP1 POP DUP2 PUSH1 0x0 DUP1 PUSH2 0x100 EXP DUP2 SLOAD DUP2 PUSH20 0xFFFFFFFFFFFFFFFFFFFFFFFFFFFFFFFFFFFFFFFF MUL NOT AND SWAP1 DUP4 PUSH20 0xFFFFFFFFFFFFFFFFFFFFFFFFFFFFFFFFFFFFFFFF AND MUL OR SWAP1 SSTORE POP DUP2 PUSH20 0xFFFFFFFFFFFFFFFFFFFFFFFFFFFFFFFFFFFFFFFF AND DUP2 PUSH20 0xFFFFFFFFFFFFFFFFFFFFFFFFFFFFFFFFFFFFFFFF AND PUSH32 0x8BE0079C531659141344CD1FD0A4F28419497F9722A3DAAFE3B4186F6B6457E0 PUSH1 0x40 MLOAD PUSH1 0x40 MLOAD DUP1 SWAP2 SUB SWAP1 LOG3 POP POP JUMP JUMPDEST PUSH1 0x0 CALLER SWAP1 POP SWAP1 JUMP JUMPDEST PUSH1 0x0 PUSH1 0x40 MLOAD SWAP1 POP SWAP1 JUMP JUMPDEST PUSH1 0x0 DUP1 REVERT JUMPDEST PUSH1 0x0 DUP1 REVERT JUMPDEST PUSH1 0x0 DUP1 REVERT JUMPDEST PUSH1 0x0 DUP1 REVERT JUMPDEST PUSH1 0x0 PUSH1 0x1F NOT PUSH1 0x1F DUP4 ADD AND SWAP1 POP SWAP2 SWAP1 POP JUMP JUMPDEST PUSH32 0x4E487B7100000000000000000000000000000000000000000000000000000000 PUSH1 0x0 MSTORE PUSH1 0x41 PUSH1 0x4 MSTORE PUSH1 0x24 PUSH1 0x0 REVERT JUMPDEST PUSH2 0xC8D DUP3 PUSH2 0xC44 JUMP JUMPDEST DUP2 ADD DUP2 DUP2 LT PUSH8 0xFFFFFFFFFFFFFFFF DUP3 GT OR ISZERO PUSH2 0xCAC JUMPI PUSH2 0xCAB PUSH2 0xC55 JUMP JUMPDEST JUMPDEST DUP1 PUSH1 0x40 MSTORE POP POP POP JUMP JUMPDEST PUSH1 0x0 PUSH2 0xCBF PUSH2 0xC26 JUMP JUMPDEST SWAP1 POP PUSH2 0xCCB DUP3 DUP3 PUSH2 0xC84 JUMP JUMPDEST SWAP2 SWAP1 POP JUMP JUMPDEST PUSH1 0x0 PUSH8 0xFFFFFFFFFFFFFFFF DUP3 GT ISZERO PUSH2 0xCEB JUMPI PUSH2 0xCEA PUSH2 0xC55 JUMP JUMPDEST JUMPDEST PUSH2 0xCF4 DUP3 PUSH2 0xC44 JUMP JUMPDEST SWAP1 POP PUSH1 0x20 DUP2 ADD SWAP1 POP SWAP2 SWAP1 POP JUMP JUMPDEST DUP3 DUP2 DUP4 CALLDATACOPY PUSH1 0x0 DUP4 DUP4 ADD MSTORE POP POP POP JUMP JUMPDEST PUSH1 0x0 PUSH2 0xD23 PUSH2 0xD1E DUP5 PUSH2 0xCD0 JUMP JUMPDEST PUSH2 0xCB5 JUMP JUMPDEST SWAP1 POP DUP3 DUP2 MSTORE PUSH1 0x20 DUP2 ADD DUP5 DUP5 DUP5 ADD GT ISZERO PUSH2 0xD3F JUMPI PUSH2 0xD3E PUSH2 0xC3F JUMP JUMPDEST JUMPDEST PUSH2 0xD4A DUP5 DUP3 DUP6 PUSH2 0xD01 JUMP JUMPDEST POP SWAP4 SWAP3 POP POP POP JUMP JUMPDEST PUSH1 0x0 DUP3 PUSH1 0x1F DUP4 ADD SLT PUSH2 0xD67 JUMPI PUSH2 0xD66 PUSH2 0xC3A JUMP JUMPDEST JUMPDEST DUP2 CALLDATALOAD PUSH2 0xD77 DUP5 DUP3 PUSH1 0x20 DUP7 ADD PUSH2 0xD10 JUMP JUMPDEST SWAP2 POP POP SWAP3 SWAP2 POP POP JUMP JUMPDEST PUSH1 0x0 PUSH8 0xFFFFFFFFFFFFFFFF DUP3 GT ISZERO PUSH2 0xD9B JUMPI PUSH2 0xD9A PUSH2 0xC55 JUMP JUMPDEST JUMPDEST PUSH1 0x20 DUP3 MUL SWAP1 POP PUSH1 0x20 DUP2 ADD SWAP1 POP SWAP2 SWAP1 POP JUMP JUMPDEST PUSH1 0x0 DUP1 REVERT JUMPDEST PUSH1 0x0 PUSH2 0xDC4 PUSH2 0xDBF DUP5 PUSH2 0xD80 JUMP JUMPDEST PUSH2 0xCB5 JUMP JUMPDEST SWAP1 POP DUP1 DUP4 DUP3 MSTORE PUSH1 0x20 DUP3 ADD SWAP1 POP PUSH1 0x20 DUP5 MUL DUP4 ADD DUP6 DUP2 GT ISZERO PUSH2 0xDE7 JUMPI PUSH2 0xDE6 PUSH2 0xDAC JUMP JUMPDEST JUMPDEST DUP4 JUMPDEST DUP2 DUP2 LT ISZERO PUSH2 0xE2E JUMPI DUP1 CALLDATALOAD PUSH8 0xFFFFFFFFFFFFFFFF DUP2 GT ISZERO PUSH2 0xE0C JUMPI PUSH2 0xE0B PUSH2 0xC3A JUMP JUMPDEST JUMPDEST DUP1 DUP7 ADD PUSH2 0xE19 DUP10 DUP3 PUSH2 0xD52 JUMP JUMPDEST DUP6 MSTORE PUSH1 0x20 DUP6 ADD SWAP5 POP POP POP PUSH1 0x20 DUP2 ADD SWAP1 POP PUSH2 0xDE9 JUMP JUMPDEST POP POP POP SWAP4 SWAP3 POP POP POP JUMP JUMPDEST PUSH1 0x0 DUP3 PUSH1 0x1F DUP4 ADD SLT PUSH2 0xE4D JUMPI PUSH2 0xE4C PUSH2 0xC3A JUMP JUMPDEST JUMPDEST DUP2 CALLDATALOAD PUSH2 0xE5D DUP5 DUP3 PUSH1 0x20 DUP7 ADD PUSH2 0xDB1 JUMP JUMPDEST SWAP2 POP POP SWAP3 SWAP2 POP POP JUMP JUMPDEST PUSH1 0x0 DUP1 PUSH1 0x40 DUP4 DUP6 SUB SLT ISZERO PUSH2 0xE7D JUMPI PUSH2 0xE7C PUSH2 0xC30 JUMP JUMPDEST JUMPDEST PUSH1 0x0 DUP4 ADD CALLDATALOAD PUSH8 0xFFFFFFFFFFFFFFFF DUP2 GT ISZERO PUSH2 0xE9B JUMPI PUSH2 0xE9A PUSH2 0xC35 JUMP JUMPDEST JUMPDEST PUSH2 0xEA7 DUP6 DUP3 DUP7 ADD PUSH2 0xD52 JUMP JUMPDEST SWAP3 POP POP PUSH1 0x20 DUP4 ADD CALLDATALOAD PUSH8 0xFFFFFFFFFFFFFFFF DUP2 GT ISZERO PUSH2 0xEC8 JUMPI PUSH2 0xEC7 PUSH2 0xC35 JUMP JUMPDEST JUMPDEST PUSH2 0xED4 DUP6 DUP3 DUP7 ADD PUSH2 0xE38 JUMP JUMPDEST SWAP2 POP POP SWAP3 POP SWAP3 SWAP1 POP JUMP JUMPDEST PUSH1 0x0 DUP2 SWAP1 POP SWAP2 SWAP1 POP JUMP JUMPDEST PUSH2 0xEF1 DUP2 PUSH2 0xEDE JUMP JUMPDEST DUP2 EQ PUSH2 0xEFC JUMPI PUSH1 0x0 DUP1 REVERT JUMPDEST POP JUMP JUMPDEST PUSH1 0x0 DUP2 CALLDATALOAD SWAP1 POP PUSH2 0xF0E DUP2 PUSH2 0xEE8 JUMP JUMPDEST SWAP3 SWAP2 POP POP JUMP JUMPDEST PUSH1 0x0 PUSH20 0xFFFFFFFFFFFFFFFFFFFFFFFFFFFFFFFFFFFFFFFF DUP3 AND SWAP1 POP SWAP2 SWAP1 POP JUMP JUMPDEST PUSH1 0x0 PUSH2 0xF3F DUP3 PUSH2 0xF14 JUMP JUMPDEST SWAP1 POP SWAP2 SWAP1 POP JUMP JUMPDEST PUSH2 0xF4F DUP2 PUSH2 0xF34 JUMP JUMPDEST DUP2 EQ PUSH2 0xF5A JUMPI PUSH1 0x0 DUP1 REVERT JUMPDEST POP JUMP JUMPDEST PUSH1 0x0 DUP2 CALLDATALOAD SWAP1 POP PUSH2 0xF6C DUP2 PUSH2 0xF46 JUMP JUMPDEST SWAP3 SWAP2 POP POP JUMP JUMPDEST PUSH1 0x0 DUP1 PUSH1 0x40 DUP4 DUP6 SUB SLT ISZERO PUSH2 0xF89 JUMPI PUSH2 0xF88 PUSH2 0xC30 JUMP JUMPDEST JUMPDEST PUSH1 0x0 PUSH2 0xF97 DUP6 DUP3 DUP7 ADD PUSH2 0xEFF JUMP JUMPDEST SWAP3 POP POP PUSH1 0x20 PUSH2 0xFA8 DUP6 DUP3 DUP7 ADD PUSH2 0xF5D JUMP JUMPDEST SWAP2 POP POP SWAP3 POP SWAP3 SWAP1 POP JUMP JUMPDEST PUSH1 0x0 DUP2 ISZERO ISZERO SWAP1 POP SWAP2 SWAP1 POP JUMP JUMPDEST PUSH2 0xFC7 DUP2 PUSH2 0xFB2 JUMP JUMPDEST DUP3 MSTORE POP POP JUMP JUMPDEST PUSH1 0x0 PUSH1 0x20 DUP3 ADD SWAP1 POP PUSH2 0xFE2 PUSH1 0x0 DUP4 ADD DUP5 PUSH2 0xFBE JUMP JUMPDEST SWAP3 SWAP2 POP POP JUMP JUMPDEST PUSH1 0x0 PUSH1 0x20 DUP3 DUP5 SUB SLT ISZERO PUSH2 0xFFE JUMPI PUSH2 0xFFD PUSH2 0xC30 JUMP JUMPDEST JUMPDEST PUSH1 0x0 PUSH2 0x100C DUP5 DUP3 DUP6 ADD PUSH2 0xEFF JUMP JUMPDEST SWAP2 POP POP SWAP3 SWAP2 POP POP JUMP JUMPDEST PUSH1 0x0 DUP2 MLOAD SWAP1 POP SWAP2 SWAP1 POP JUMP JUMPDEST PUSH1 0x0 DUP3 DUP3 MSTORE PUSH1 0x20 DUP3 ADD SWAP1 POP SWAP3 SWAP2 POP POP JUMP JUMPDEST PUSH1 0x0 JUMPDEST DUP4 DUP2 LT ISZERO PUSH2 0x104F JUMPI DUP1 DUP3 ADD MLOAD DUP2 DUP5 ADD MSTORE PUSH1 0x20 DUP2 ADD SWAP1 POP PUSH2 0x1034 JUMP JUMPDEST PUSH1 0x0 DUP5 DUP5 ADD MSTORE POP POP POP POP JUMP JUMPDEST PUSH1 0x0 PUSH2 0x1066 DUP3 PUSH2 0x1015 JUMP JUMPDEST PUSH2 0x1070 DUP2 DUP6 PUSH2 0x1020 JUMP JUMPDEST SWAP4 POP PUSH2 0x1080 DUP2 DUP6 PUSH1 0x20 DUP7 ADD PUSH2 0x1031 JUMP JUMPDEST PUSH2 0x1089 DUP2 PUSH2 0xC44 JUMP JUMPDEST DUP5 ADD SWAP2 POP POP SWAP3 SWAP2 POP POP JUMP JUMPDEST PUSH1 0x0 DUP2 MLOAD SWAP1 POP SWAP2 SWAP1 POP JUMP JUMPDEST PUSH1 0x0 DUP3 DUP3 MSTORE PUSH1 0x20 DUP3 ADD SWAP1 POP SWAP3 SWAP2 POP POP JUMP JUMPDEST PUSH1 0x0 DUP2 SWAP1 POP PUSH1 0x20 DUP3 ADD SWAP1 POP SWAP2 SWAP1 POP JUMP JUMPDEST PUSH1 0x0 DUP3 DUP3 MSTORE PUSH1 0x20 DUP3 ADD SWAP1 POP SWAP3 SWAP2 POP POP JUMP JUMPDEST PUSH1 0x0 PUSH2 0x10DC DUP3 PUSH2 0x1015 JUMP JUMPDEST PUSH2 0x10E6 DUP2 DUP6 PUSH2 0x10C0 JUMP JUMPDEST SWAP4 POP PUSH2 0x10F6 DUP2 DUP6 PUSH1 0x20 DUP7 ADD PUSH2 0x1031 JUMP JUMPDEST PUSH2 0x10FF DUP2 PUSH2 0xC44 JUMP JUMPDEST DUP5 ADD SWAP2 POP POP SWAP3 SWAP2 POP POP JUMP JUMPDEST PUSH1 0x0 PUSH2 0x1116 DUP4 DUP4 PUSH2 0x10D1 JUMP JUMPDEST SWAP1 POP SWAP3 SWAP2 POP POP JUMP JUMPDEST PUSH1 0x0 PUSH1 0x20 DUP3 ADD SWAP1 POP SWAP2 SWAP1 POP JUMP JUMPDEST PUSH1 0x0 PUSH2 0x1136 DUP3 PUSH2 0x1094 JUMP JUMPDEST PUSH2 0x1140 DUP2 DUP6 PUSH2 0x109F JUMP JUMPDEST SWAP4 POP DUP4 PUSH1 0x20 DUP3 MUL DUP6 ADD PUSH2 0x1152 DUP6 PUSH2 0x10B0 JUMP JUMPDEST DUP1 PUSH1 0x0 JUMPDEST DUP6 DUP2 LT ISZERO PUSH2 0x118E JUMPI DUP5 DUP5 SUB DUP10 MSTORE DUP2 MLOAD PUSH2 0x116F DUP6 DUP3 PUSH2 0x110A JUMP JUMPDEST SWAP5 POP PUSH2 0x117A DUP4 PUSH2 0x111E JUMP JUMPDEST SWAP3 POP PUSH1 0x20 DUP11 ADD SWAP10 POP POP PUSH1 0x1 DUP2 ADD SWAP1 POP PUSH2 0x1156 JUMP JUMPDEST POP DUP3 SWAP8 POP DUP8 SWAP6 POP POP POP POP POP POP SWAP3 SWAP2 POP POP JUMP JUMPDEST PUSH1 0x0 DUP2 MLOAD SWAP1 POP SWAP2 SWAP1 POP JUMP JUMPDEST PUSH1 0x0 DUP3 DUP3 MSTORE PUSH1 0x20 DUP3 ADD SWAP1 POP SWAP3 SWAP2 POP POP JUMP JUMPDEST PUSH1 0x0 DUP2 SWAP1 POP PUSH1 0x20 DUP3 ADD SWAP1 POP SWAP2 SWAP1 POP JUMP JUMPDEST PUSH2 0x11D5 DUP2 PUSH2 0xEDE JUMP JUMPDEST DUP3 MSTORE POP POP JUMP JUMPDEST PUSH1 0x0 PUSH2 0x11E7 DUP4 DUP4 PUSH2 0x11CC JUMP JUMPDEST PUSH1 0x20 DUP4 ADD SWAP1 POP SWAP3 SWAP2 POP POP JUMP JUMPDEST PUSH1 0x0 PUSH1 0x20 DUP3 ADD SWAP1 POP SWAP2 SWAP1 POP JUMP JUMPDEST PUSH1 0x0 PUSH2 0x120B DUP3 PUSH2 0x11A0 JUMP JUMPDEST PUSH2 0x1215 DUP2 DUP6 PUSH2 0x11AB JUMP JUMPDEST SWAP4 POP PUSH2 0x1220 DUP4 PUSH2 0x11BC JUMP JUMPDEST DUP1 PUSH1 0x0 JUMPDEST DUP4 DUP2 LT ISZERO PUSH2 0x1251 JUMPI DUP2 MLOAD PUSH2 0x1238 DUP9 DUP3 PUSH2 0x11DB JUMP JUMPDEST SWAP8 POP PUSH2 0x1243 DUP4 PUSH2 0x11F3 JUMP JUMPDEST SWAP3 POP POP PUSH1 0x1 DUP2 ADD SWAP1 POP PUSH2 0x1224 JUMP JUMPDEST POP DUP6 SWAP4 POP POP POP POP SWAP3 SWAP2 POP POP JUMP JUMPDEST PUSH2 0x1267 DUP2 PUSH2 0xEDE JUMP JUMPDEST DUP3 MSTORE POP POP JUMP JUMPDEST PUSH1 0x0 PUSH1 0xA0 DUP3 ADD SWAP1 POP DUP2 DUP2 SUB PUSH1 0x0 DUP4 ADD MSTORE PUSH2 0x1287 DUP2 DUP9 PUSH2 0x105B JUMP JUMPDEST SWAP1 POP DUP2 DUP2 SUB PUSH1 0x20 DUP4 ADD MSTORE PUSH2 0x129B DUP2 DUP8 PUSH2 0x112B JUMP JUMPDEST SWAP1 POP DUP2 DUP2 SUB PUSH1 0x40 DUP4 ADD MSTORE PUSH2 0x12AF DUP2 DUP7 PUSH2 0x1200 JUMP JUMPDEST SWAP1 POP PUSH2 0x12BE PUSH1 0x60 DUP4 ADD DUP6 PUSH2 0x125E JUMP JUMPDEST PUSH2 0x12CB PUSH1 0x80 DUP4 ADD DUP5 PUSH2 0xFBE JUMP JUMPDEST SWAP7 SWAP6 POP POP POP POP POP POP JUMP JUMPDEST PUSH1 0x0 PUSH1 0x20 DUP3 ADD SWAP1 POP PUSH2 0x12EA PUSH1 0x0 DUP4 ADD DUP5 PUSH2 0x125E JUMP JUMPDEST SWAP3 SWAP2 POP POP JUMP JUMPDEST PUSH2 0x12F9 DUP2 PUSH2 0xF34 JUMP JUMPDEST DUP3 MSTORE POP POP JUMP JUMPDEST PUSH1 0x0 PUSH1 0x20 DUP3 ADD SWAP1 POP PUSH2 0x1314 PUSH1 0x0 DUP4 ADD DUP5 PUSH2 0x12F0 JUMP JUMPDEST SWAP3 SWAP2 POP POP JUMP JUMPDEST PUSH1 0x0 DUP1 PUSH1 0x40 DUP4 DUP6 SUB SLT ISZERO PUSH2 0x1331 JUMPI PUSH2 0x1330 PUSH2 0xC30 JUMP JUMPDEST JUMPDEST PUSH1 0x0 PUSH2 0x133F DUP6 DUP3 DUP7 ADD PUSH2 0xEFF JUMP JUMPDEST SWAP3 POP POP PUSH1 0x20 PUSH2 0x1350 DUP6 DUP3 DUP7 ADD PUSH2 0xEFF JUMP JUMPDEST SWAP2 POP POP SWAP3 POP SWAP3 SWAP1 POP JUMP JUMPDEST PUSH1 0x0 PUSH1 0x20 DUP3 DUP5 SUB SLT ISZERO PUSH2 0x1370 JUMPI PUSH2 0x136F PUSH2 0xC30 JUMP JUMPDEST JUMPDEST PUSH1 0x0 PUSH2 0x137E DUP5 DUP3 DUP6 ADD PUSH2 0xF5D JUMP JUMPDEST SWAP2 POP POP SWAP3 SWAP2 POP POP JUMP JUMPDEST PUSH32 0x4174206C65617374203220636F6D70616E696573207265717569726564000000 PUSH1 0x0 DUP3 ADD MSTORE POP JUMP JUMPDEST PUSH1 0x0 PUSH2 0x13BD PUSH1 0x1D DUP4 PUSH2 0x1020 JUMP JUMPDEST SWAP2 POP PUSH2 0x13C8 DUP3 PUSH2 0x1387 JUMP JUMPDEST PUSH1 0x20 DUP3 ADD SWAP1 POP SWAP2 SWAP1 POP JUMP JUMPDEST PUSH1 0x0 PUSH1 0x20 DUP3 ADD SWAP1 POP DUP2 DUP2 SUB PUSH1 0x0 DUP4 ADD MSTORE PUSH2 0x13EC DUP2 PUSH2 0x13B0 JUMP JUMPDEST SWAP1 POP SWAP2 SWAP1 POP JUMP JUMPDEST PUSH32 0x4E487B7100000000000000000000000000000000000000000000000000000000 PUSH1 0x0 MSTORE PUSH1 0x22 PUSH1 0x4 MSTORE PUSH1 0x24 PUSH1 0x0 REVERT JUMPDEST PUSH1 0x0 PUSH1 0x2 DUP3 DIV SWAP1 POP PUSH1 0x1 DUP3 AND DUP1 PUSH2 0x143A JUMPI PUSH1 0x7F DUP3 AND SWAP2 POP JUMPDEST PUSH1 0x20 DUP3 LT DUP2 SUB PUSH2 0x144D JUMPI PUSH2 0x144C PUSH2 0x13F3 JUMP JUMPDEST JUMPDEST POP SWAP2 SWAP1 POP JUMP JUMPDEST PUSH1 0x0 DUP2 SWAP1 POP DUP2 PUSH1 0x0 MSTORE PUSH1 0x20 PUSH1 0x0 KECCAK256 SWAP1 POP SWAP2 SWAP1 POP JUMP JUMPDEST PUSH1 0x0 PUSH1 0x20 PUSH1 0x1F DUP4 ADD DIV SWAP1 POP SWAP2 SWAP1 POP JUMP JUMPDEST PUSH1 0x0 DUP3 DUP3 SHL SWAP1 POP SWAP3 SWAP2 POP POP JUMP JUMPDEST PUSH1 0x0 PUSH1 0x8 DUP4 MUL PUSH2 0x14B5 PUSH32 0xFFFFFFFFFFFFFFFFFFFFFFFFFFFFFFFFFFFFFFFFFFFFFFFFFFFFFFFFFFFFFFFF DUP3 PUSH2 0x1478 JUMP JUMPDEST PUSH2 0x14BF DUP7 DUP4 PUSH2 0x1478 JUMP JUMPDEST SWAP6 POP DUP1 NOT DUP5 AND SWAP4 POP DUP1 DUP7 AND DUP5 OR SWAP3 POP POP POP SWAP4 SWAP3 POP POP POP JUMP JUMPDEST PUSH1 0x0 DUP2 SWAP1 POP SWAP2 SWAP1 POP JUMP JUMPDEST PUSH1 0x0 PUSH2 0x14FC PUSH2 0x14F7 PUSH2 0x14F2 DUP5 PUSH2 0xEDE JUMP JUMPDEST PUSH2 0x14D7 JUMP JUMPDEST PUSH2 0xEDE JUMP JUMPDEST SWAP1 POP SWAP2 SWAP1 POP JUMP JUMPDEST PUSH1 0x0 DUP2 SWAP1 POP SWAP2 SWAP1 POP JUMP JUMPDEST PUSH2 0x1516 DUP4 PUSH2 0x14E1 JUMP JUMPDEST PUSH2 0x152A PUSH2 0x1522 DUP3 PUSH2 0x1503 JUMP JUMPDEST DUP5 DUP5 SLOAD PUSH2 0x1485 JUMP JUMPDEST DUP3 SSTORE POP POP POP POP JUMP JUMPDEST PUSH1 0x0 SWAP1 JUMP JUMPDEST PUSH2 0x153F PUSH2 0x1532 JUMP JUMPDEST PUSH2 0x154A DUP2 DUP5 DUP5 PUSH2 0x150D JUMP JUMPDEST POP POP POP JUMP JUMPDEST JUMPDEST DUP2 DUP2 LT ISZERO PUSH2 0x156E JUMPI PUSH2 0x1563 PUSH1 0x0 DUP3 PUSH2 0x1537 JUMP JUMPDEST PUSH1 0x1 DUP2 ADD SWAP1 POP PUSH2 0x1550 JUMP JUMPDEST POP POP JUMP JUMPDEST PUSH1 0x1F DUP3 GT ISZERO PUSH2 0x15B3 JUMPI PUSH2 0x1584 DUP2 PUSH2 0x1453 JUMP JUMPDEST PUSH2 0x158D DUP5 PUSH2 0x1468 JUMP JUMPDEST DUP2 ADD PUSH1 0x20 DUP6 LT ISZERO PUSH2 0x159C JUMPI DUP2 SWAP1 POP JUMPDEST PUSH2 0x15B0 PUSH2 0x15A8 DUP6 PUSH2 0x1468 JUMP JUMPDEST DUP4 ADD DUP3 PUSH2 0x154F JUMP JUMPDEST POP POP JUMPDEST POP POP POP JUMP JUMPDEST PUSH1 0x0 DUP3 DUP3 SHR SWAP1 POP SWAP3 SWAP2 POP POP JUMP JUMPDEST PUSH1 0x0 PUSH2 0x15D6 PUSH1 0x0 NOT DUP5 PUSH1 0x8 MUL PUSH2 0x15B8 JUMP JUMPDEST NOT DUP1 DUP4 AND SWAP2 POP POP SWAP3 SWAP2 POP POP JUMP JUMPDEST PUSH1 0x0 PUSH2 0x15EF DUP4 DUP4 PUSH2 0x15C5 JUMP JUMPDEST SWAP2 POP DUP3 PUSH1 0x2 MUL DUP3 OR SWAP1 POP SWAP3 SWAP2 POP POP JUMP JUMPDEST PUSH2 0x1608 DUP3 PUSH2 0x1015 JUMP JUMPDEST PUSH8 0xFFFFFFFFFFFFFFFF DUP2 GT ISZERO PUSH2 0x1621 JUMPI PUSH2 0x1620 PUSH2 0xC55 JUMP JUMPDEST JUMPDEST PUSH2 0x162B DUP3 SLOAD PUSH2 0x1422 JUMP JUMPDEST PUSH2 0x1636 DUP3 DUP3 DUP6 PUSH2 0x1572 JUMP JUMPDEST PUSH1 0x0 PUSH1 0x20 SWAP1 POP PUSH1 0x1F DUP4 GT PUSH1 0x1 DUP2 EQ PUSH2 0x1669 JUMPI PUSH1 0x0 DUP5 ISZERO PUSH2 0x1657 JUMPI DUP3 DUP8 ADD MLOAD SWAP1 POP JUMPDEST PUSH2 0x1661 DUP6 DUP3 PUSH2 0x15E3 JUMP JUMPDEST DUP7 SSTORE POP PUSH2 0x16C9 JUMP JUMPDEST PUSH1 0x1F NOT DUP5 AND PUSH2 0x1677 DUP7 PUSH2 0x1453 JUMP JUMPDEST PUSH1 0x0 JUMPDEST DUP3 DUP2 LT ISZERO PUSH2 0x169F JUMPI DUP5 DUP10 ADD MLOAD DUP3 SSTORE PUSH1 0x1 DUP3 ADD SWAP2 POP PUSH1 0x20 DUP6 ADD SWAP5 POP PUSH1 0x20 DUP2 ADD SWAP1 POP PUSH2 0x167A JUMP JUMPDEST DUP7 DUP4 LT ISZERO PUSH2 0x16BC JUMPI DUP5 DUP10 ADD MLOAD PUSH2 0x16B8 PUSH1 0x1F DUP10 AND DUP3 PUSH2 0x15C5 JUMP JUMPDEST DUP4 SSTORE POP JUMPDEST PUSH1 0x1 PUSH1 0x2 DUP9 MUL ADD DUP9 SSTORE POP POP POP JUMPDEST POP POP POP POP POP POP JUMP JUMPDEST PUSH32 0x4E487B7100000000000000000000000000000000000000000000000000000000 PUSH1 0x0 MSTORE PUSH1 0x32 PUSH1 0x4 MSTORE PUSH1 0x24 PUSH1 0x0 REVERT JUMPDEST PUSH32 0x4E487B7100000000000000000000000000000000000000000000000000000000 PUSH1 0x0 MSTORE PUSH1 0x11 PUSH1 0x4 MSTORE PUSH1 0x24 PUSH1 0x0 REVERT JUMPDEST PUSH1 0x0 PUSH2 0x173A DUP3 PUSH2 0xEDE JUMP JUMPDEST SWAP2 POP PUSH32 0xFFFFFFFFFFFFFFFFFFFFFFFFFFFFFFFFFFFFFFFFFFFFFFFFFFFFFFFFFFFFFFFF DUP3 SUB PUSH2 0x176C JUMPI PUSH2 0x176B PUSH2 0x1700 JUMP JUMPDEST JUMPDEST PUSH1 0x1 DUP3 ADD SWAP1 POP SWAP2 SWAP1 POP JUMP JUMPDEST PUSH1 0x0 PUSH1 0x40 DUP3 ADD SWAP1 POP DUP2 DUP2 SUB PUSH1 0x0 DUP4 ADD MSTORE PUSH2 0x1791 DUP2 DUP6 PUSH2 0x105B JUMP JUMPDEST SWAP1 POP DUP2 DUP2 SUB PUSH1 0x20 DUP4 ADD MSTORE PUSH2 0x17A5 DUP2 DUP5 PUSH2 0x112B JUMP JUMPDEST SWAP1 POP SWAP4 SWAP3 POP POP POP JUMP JUMPDEST PUSH32 0x4576656E7420646F6573206E6F74206578697374000000000000000000000000 PUSH1 0x0 DUP3 ADD MSTORE POP JUMP JUMPDEST PUSH1 0x0 PUSH2 0x17E4 PUSH1 0x14 DUP4 PUSH2 0x1020 JUMP JUMPDEST SWAP2 POP PUSH2 0x17EF DUP3 PUSH2 0x17AE JUMP JUMPDEST PUSH1 0x20 DUP3 ADD SWAP1 POP SWAP2 SWAP1 POP JUMP JUMPDEST PUSH1 0x0 PUSH1 0x20 DUP3 ADD SWAP1 POP DUP2 DUP2 SUB PUSH1 0x0 DUP4 ADD MSTORE PUSH2 0x1813 DUP2 PUSH2 0x17D7 JUMP JUMPDEST SWAP1 POP SWAP2 SWAP1 POP JUMP JUMPDEST PUSH32 0x566F74696E6720656E6465640000000000000000000000000000000000000000 PUSH1 0x0 DUP3 ADD MSTORE POP JUMP JUMPDEST PUSH1 0x0 PUSH2 0x1850 PUSH1 0xC DUP4 PUSH2 0x1020 JUMP JUMPDEST SWAP2 POP PUSH2 0x185B DUP3 PUSH2 0x181A JUMP JUMPDEST PUSH1 0x20 DUP3 ADD SWAP1 POP SWAP2 SWAP1 POP JUMP JUMPDEST PUSH1 0x0 PUSH1 0x20 DUP3 ADD SWAP1 POP DUP2 DUP2 SUB PUSH1 0x0 DUP4 ADD MSTORE PUSH2 0x187F DUP2 PUSH2 0x1843 JUMP JUMPDEST SWAP1 POP SWAP2 SWAP1 POP JUMP JUMPDEST PUSH32 0x416C726561647920766F74656400000000000000000000000000000000000000 PUSH1 0x0 DUP3 ADD MSTORE POP JUMP JUMPDEST PUSH1 0x0 PUSH2 0x18BC PUSH1 0xD DUP4 PUSH2 0x1020 JUMP JUMPDEST SWAP2 POP PUSH2 0x18C7 DUP3 PUSH2 0x1886 JUMP JUMPDEST PUSH1 0x20 DUP3 ADD SWAP1 POP SWAP2 SWAP1 POP JUMP JUMPDEST PUSH1 0x0 PUSH1 0x20 DUP3 ADD SWAP1 POP DUP2 DUP2 SUB PUSH1 0x0 DUP4 ADD MSTORE PUSH2 0x18EB DUP2 PUSH2 0x18AF JUMP JUMPDEST SWAP1 POP SWAP2 SWAP1 POP JUMP JUMPDEST PUSH32 0x496E76616C696420636F6D70616E790000000000000000000000000000000000 PUSH1 0x0 DUP3 ADD MSTORE POP JUMP JUMPDEST PUSH1 0x0 PUSH2 0x1928 PUSH1 0xF DUP4 PUSH2 0x1020 JUMP JUMPDEST SWAP2 POP PUSH2 0x1933 DUP3 PUSH2 0x18F2 JUMP JUMPDEST PUSH1 0x20 DUP3 ADD SWAP1 POP SWAP2 SWAP1 POP JUMP JUMPDEST PUSH1 0x0 PUSH1 0x20 DUP3 ADD SWAP1 POP DUP2 DUP2 SUB PUSH1 0x0 DUP4 ADD MSTORE PUSH2 0x1957 DUP2 PUSH2 0x191B JUMP JUMPDEST SWAP1 POP SWAP2 SWAP1 POP JUMP INVALID LOG2 PUSH5 0x6970667358 0x22 SLT KECCAK256 CALL 0xAE PUSH30 0x4E7CB801676059FF546C7F75F58ACF9E0E4CACD8EE2CD7EC4A0F8202C264 PUSH20 0x6F6C634300081400330000000000000000000000 "},"methodIdentifiers":{"createVotingEvent(string,string[])":"3867f207","endVoting(uint256)":"649f89a5","eventCount()":"71be2e4a","getEvent(uint256)":"6d1884e0","hasVoted(uint256,address)":"43859632","owner()":"8da5cb5b","renounceOwnership()":"715018a6","transferOwnership(address)":"f2fde38b","vote(uint256,uint256)":"b384abef"}}}}}