{
  "_format": "hh-sol-artifact-1",
  "contractName": "Voting",
  "sourceName": "contracts/Voting.sol",
  "abi": [
    {
      "inputs": [],
      "stateMutability": "nonpayable",
      "type": "constructor"
    },
    {
      "inputs": [
        {
          "internalType": "address",
          "name": "owner",
          "type": "address"
        }
      ],
      "name": "OwnableInvalidOwner",
      "type": "error"
    },
    {
      "inputs": [
        {
          "internalType": "address",
          "name": "account",
          "type": "address"
        }
      ],
      "name": "OwnableUnauthorizedAccount",
      "type": "error"
    },
    {
      "anonymous": false,
      "inputs": [
        {
          "indexed": true,
          "internalType": "address",
          "name": "previousOwner",
          "type": "address"
        },
        {
          "indexed": true,
          "internalType": "address",
          "name": "newOwner",
          "type": "address"
        }
      ],
      "name": "OwnershipTransferred",
      "type": "event"
    },
    {
      "anonymous": false,
      "inputs": [
        {
          "indexed": true,
          "internalType": "uint256",
          "name": "eventId",
          "type": "uint256"
        },
        {
          "indexed": true,
          "internalType": "address",
          "name": "voter",
          "type": "address"
        },
        {
          "indexed": false,
          "internalType": "uint256",
          "name": "companyIndex",
          "type": "uint256"
        }
      ],
      "name": "Voted",
      "type": "event"
    },
    {
      "anonymous": false,
      "inputs": [
        {
          "indexed": true,
          "internalType": "uint256",
          "name": "eventId",
          "type": "uint256"
        },
        {
          "indexed": false,
          "internalType": "string",
          "name": "name",
          "type": "string"
        },
        {
          "indexed": false,
          "internalType": "string[]",
          "name": "companies",
          "type": "string[]"
        }
      ],
      "name": "VotingEventCreated",
      "type": "event"
    },
    {
      "inputs": [
        {
          "internalType": "string",
          "name": "name",
          "type": "string"
        },
        {
          "internalType": "string[]",
          "name": "companyNames",
          "type": "string[]"
        },
        {
          "internalType": "uint256",
          "name": "startTime",
          "type": "uint256"
        },
        {
          "internalType": "uint256",
          "name": "endTime",
          "type": "uint256"
        }
      ],
      "name": "createVotingEvent",
      "outputs": [],
      "stateMutability": "nonpayable",
      "type": "function"
    },
    {
      "inputs": [
        {
          "internalType": "uint256",
          "name": "eventId",
          "type": "uint256"
        }
      ],
      "name": "endVoting",
      "outputs": [],
      "stateMutability": "nonpayable",
      "type": "function"
    },
    {
      "inputs": [],
      "name": "eventCount",
      "outputs": [
        {
          "internalType": "uint256",
          "name": "",
          "type": "uint256"
        }
      ],
      "stateMutability": "view",
      "type": "function"
    },
    {
      "inputs": [
        {
          "internalType": "uint256",
          "name": "eventId",
          "type": "uint256"
        },
        {
          "internalType": "uint256",
          "name": "companyIndex",
          "type": "uint256"
        }
      ],
      "name": "getCompanyName",
      "outputs": [
        {
          "internalType": "string",
          "name": "",
          "type": "string"
        }
      ],
      "stateMutability": "view",
      "type": "function"
    },
    {
      "inputs": [
        {
          "internalType": "uint256",
          "name": "eventId",
          "type": "uint256"
        }
      ],
      "name": "getEvent",
      "outputs": [
        {
          "internalType": "string",
          "name": "name",
          "type": "string"
        },
        {
          "internalType": "string[]",
          "name": "companies",
          "type": "string[]"
        },
        {
          "internalType": "uint256[]",
          "name": "voteCounts",
          "type": "uint256[]"
        },
        {
          "internalType": "uint256",
          "name": "winnerIndex",
          "type": "uint256"
        },
        {
          "internalType": "bool",
          "name": "ended",
          "type": "bool"
        }
      ],
      "stateMutability": "view",
      "type": "function"
    },
    {
      "inputs": [
        {
          "internalType": "uint256",
          "name": "eventId",
          "type": "uint256"
        }
      ],
      "name": "getEventEndTime",
      "outputs": [
        {
          "internalType": "uint256",
          "name": "",
          "type": "uint256"
        }
      ],
      "stateMutability": "view",
      "type": "function"
    },
    {
      "inputs": [
        {
          "internalType": "uint256",
          "name": "eventId",
          "type": "uint256"
        }
      ],
      "name": "getEventEnded",
      "outputs": [
        {
          "internalType": "bool",
          "name": "",
          "type": "bool"
        }
      ],
      "stateMutability": "view",
      "type": "function"
    },
    {
      "inputs": [
        {
          "internalType": "uint256",
          "name": "eventId",
          "type": "uint256"
        }
      ],
      "name": "getEventName",
      "outputs": [
        {
          "internalType": "string",
          "name": "",
          "type": "string"
        }
      ],
      "stateMutability": "view",
      "type": "function"
    },
    {
      "inputs": [
        {
          "internalType": "uint256",
          "name": "eventId",
          "type": "uint256"
        }
      ],
      "name": "getEventStartTime",
      "outputs": [
        {
          "internalType": "uint256",
          "name": "",
          "type": "uint256"
        }
      ],
      "stateMutability": "view",
      "type": "function"
    },
    {
      "inputs": [
        {
          "internalType": "uint256",
          "name": "eventId",
          "type": "uint256"
        },
        {
          "internalType": "uint256",
          "name": "companyIndex",
          "type": "uint256"
        }
      ],
      "name": "getVoteCount",
      "outputs": [
        {
          "internalType": "uint256",
          "name": "",
          "type": "uint256"
        }
      ],
      "stateMutability": "view",
      "type": "function"
    },
    {
      "inputs": [
        {
          "internalType": "uint256",
          "name": "eventId",
          "type": "uint256"
        }
      ],
      "name": "getWinnerIndex",
      "outputs": [
        {
          "internalType": "uint256",
          "name": "",
          "type": "uint256"
        }
      ],
      "stateMutability": "view",
      "type": "function"
    },
    {
      "inputs": [
        {
          "internalType": "uint256",
          "name": "eventId",
          "type": "uint256"
        },
        {
          "internalType": "address",
          "name": "user",
          "type": "address"
        }
      ],
      "name": "hasVoted",
      "outputs": [
        {
          "internalType": "bool",
          "name": "",
          "type": "bool"
        }
      ],
      "stateMutability": "view",
      "type": "function"
    },
    {
      "inputs": [],
      "name": "owner",
      "outputs": [
        {
          "internalType": "address",
          "name": "",
          "type": "address"
        }
      ],
      "stateMutability": "view",
      "type": "function"
    },
    {
      "inputs": [],
      "name": "renounceOwnership",
      "outputs": [],
      "stateMutability": "nonpayable",
      "type": "function"
    },
    {
      "inputs": [
        {
          "internalType": "address",
          "name": "newOwner",
          "type": "address"
        }
      ],
      "name": "transferOwnership",
      "outputs": [],
      "stateMutability": "nonpayable",
      "type": "function"
    },
    {
      "inputs": [
        {
          "internalType": "uint256",
          "name": "eventId",
          "type": "uint256"
        },
        {
          "internalType": "uint256",
          "name": "companyIndex",
          "type": "uint256"
        }
      ],
      "name": "vote",
      "outputs": [],
      "stateMutability": "nonpayable",
      "type": "function"
    }
  ],
  "bytecode": "0x60806040523480156200001157600080fd5b5033600073ffffffffffffffffffffffffffffffffffffffff168173ffffffffffffffffffffffffffffffffffffffff1603620000885760006040517f1e4fbdf70000000000000000000000000000000000000000000000000000000081526004016200007f9190620001a9565b60405180910390fd5b6200009981620000a060201b60201c565b50620001c6565b60008060009054906101000a900473ffffffffffffffffffffffffffffffffffffffff169050816000806101000a81548173ffffffffffffffffffffffffffffffffffffffff021916908373ffffffffffffffffffffffffffffffffffffffff1602179055508173ffffffffffffffffffffffffffffffffffffffff168173ffffffffffffffffffffffffffffffffffffffff167f8be0079c531659141344cd1fd0a4f28419497f9722a3daafe3b4186f6b6457e060405160405180910390a35050565b600073ffffffffffffffffffffffffffffffffffffffff82169050919050565b6000620001918262000164565b9050919050565b620001a38162000184565b82525050565b6000602082019050620001c0600083018462000198565b92915050565b61226b80620001d66000396000f3fe608060405234801561001057600080fd5b50600436106101005760003560e01c8063a5b679c211610097578063d437a1a711610066578063d437a1a7146102c3578063d5c5b83c146102f3578063de2e19a014610323578063f2fde38b1461035357610100565b8063a5b679c21461022b578063b384abef1461025b578063c135985d14610277578063ca579f1c1461029357610100565b80636d1884e0116100d35780636d1884e0146101b1578063715018a6146101e557806371be2e4a146101ef5780638da5cb5b1461020d57610100565b8063291a821d1461010557806343859632146101355780634945fcc714610165578063649f89a514610195575b600080fd5b61011f600480360381019061011a9190611400565b61036f565b60405161012c919061143c565b60405180910390f35b61014f600480360381019061014a91906114b5565b6103f4565b60405161015c9190611510565b60405180910390f35b61017f600480360381019061017a9190611400565b6104c4565b60405161018c91906115bb565b60405180910390f35b6101af60048036038101906101aa9190611400565b6105d1565b005b6101cb60048036038101906101c69190611400565b610670565b6040516101dc9594939291906117a7565b60405180910390f35b6101ed61091f565b005b6101f7610933565b604051610204919061143c565b60405180910390f35b610215610939565b604051610222919061181e565b60405180910390f35b61024560048036038101906102409190611400565b610962565b604051610252919061143c565b60405180910390f35b61027560048036038101906102709190611839565b6109e7565b005b610291600480360381019061028c9190611a94565b610d34565b005b6102ad60048036038101906102a89190611839565b610f05565b6040516102ba91906115bb565b60405180910390f35b6102dd60048036038101906102d89190611400565b61102f565b6040516102ea9190611510565b60405180910390f35b61030d60048036038101906103089190611400565b6110c1565b60405161031a919061143c565b60405180910390f35b61033d60048036038101906103389190611839565b611146565b60405161034a919061143c565b60405180910390f35b61036d60048036038101906103689190611b33565b6111dd565b005b6000816002600082815260200190815260200160002060050160009054906101000a900460ff166103d5576040517f08c379a00000000000000000000000000000000000000000000000000000000081526004016103cc90611bac565b60405180910390fd5b6002600084815260200190815260200160002060060154915050919050565b6000826002600082815260200190815260200160002060050160009054906101000a900460ff1661045a576040517f08c379a000000000000000000000000000000000000000000000000000000000815260040161045190611bac565b60405180910390fd5b6002600085815260200190815260200160002060030160008473ffffffffffffffffffffffffffffffffffffffff1673ffffffffffffffffffffffffffffffffffffffff16815260200190815260200160002060009054906101000a900460ff1691505092915050565b6060816002600082815260200190815260200160002060050160009054906101000a900460ff1661052a576040517f08c379a000000000000000000000000000000000000000000000000000000000815260040161052190611bac565b60405180910390fd5b60026000848152602001908152602001600020600001805461054b90611bfb565b80601f016020809104026020016040519081016040528092919081815260200182805461057790611bfb565b80156105c45780601f10610599576101008083540402835291602001916105c4565b820191906000526020600020905b8154815290600101906020018083116105a757829003601f168201915b5050505050915050919050565b6105d9611263565b806002600082815260200190815260200160002060050160009054906101000a900460ff1661063d576040517f08c379a000000000000000000000000000000000000000000000000000000000815260040161063490611bac565b60405180910390fd5b60016002600084815260200190815260200160002060050160016101000a81548160ff0219169083151502179055505050565b6060806060600080856002600082815260200190815260200160002060050160009054906101000a900460ff166106dc576040517f08c379a00000000000000000000000000000000000000000000000000000000081526004016106d390611bac565b60405180910390fd5b600060026000898152602001908152602001600020905080600001805461070290611bfb565b80601f016020809104026020016040519081016040528092919081815260200182805461072e90611bfb565b801561077b5780601f106107505761010080835404028352916020019161077b565b820191906000526020600020905b81548152906001019060200180831161075e57829003601f168201915b5050505050965080600101805480602002602001604051908101604052809291908181526020016000905b828210156108525783829060005260206000200180546107c590611bfb565b80601f01602080910402602001604051908101604052809291908181526020018280546107f190611bfb565b801561083e5780601f106108135761010080835404028352916020019161083e565b820191906000526020600020905b81548152906001019060200180831161082157829003601f168201915b5050505050815260200190600101906107a6565b505050509550855167ffffffffffffffff81111561087357610872611883565b5b6040519080825280602002602001820160405280156108a15781602001602082028036833780820191505090505b50945060005b86518110156108f857816002016000828152602001908152602001600020548682815181106108d9576108d8611c2c565b5b60200260200101818152505080806108f090611c8a565b9150506108a7565b50806004015493508060050160019054906101000a900460ff169250505091939590929450565b610927611263565b61093160006112ea565b565b60015481565b60008060009054906101000a900473ffffffffffffffffffffffffffffffffffffffff16905090565b6000816002600082815260200190815260200160002060050160009054906101000a900460ff166109c8576040517f08c379a00000000000000000000000000000000000000000000000000000000081526004016109bf90611bac565b60405180910390fd5b6002600084815260200190815260200160002060040154915050919050565b816002600082815260200190815260200160002060050160009054906101000a900460ff16610a4b576040517f08c379a0000000000000000000000000000000000000000000000000000000008152600401610a4290611bac565b60405180910390fd5b60006002600085815260200190815260200160002090508060050160019054906101000a900460ff1615610ab4576040517f08c379a0000000000000000000000000000000000000000000000000000000008152600401610aab90611d1e565b60405180910390fd5b8060060154421015610afb576040517f08c379a0000000000000000000000000000000000000000000000000000000008152600401610af290611d8a565b60405180910390fd5b8060070154421115610b42576040517f08c379a0000000000000000000000000000000000000000000000000000000008152600401610b3990611d1e565b60405180910390fd5b8060030160003373ffffffffffffffffffffffffffffffffffffffff1673ffffffffffffffffffffffffffffffffffffffff16815260200190815260200160002060009054906101000a900460ff1615610bd1576040517f08c379a0000000000000000000000000000000000000000000000000000000008152600401610bc890611df6565b60405180910390fd5b80600101805490508310610c1a576040517f08c379a0000000000000000000000000000000000000000000000000000000008152600401610c1190611e62565b60405180910390fd5b8060020160008481526020019081526020016000206000815480929190610c4090611c8a565b919050555060018160030160003373ffffffffffffffffffffffffffffffffffffffff1673ffffffffffffffffffffffffffffffffffffffff16815260200190815260200160002060006101000a81548160ff0219169083151502179055508060020160008260040154815260200190815260200160002054816002016000858152602001908152602001600020541115610cdf578281600401819055505b3373ffffffffffffffffffffffffffffffffffffffff16847f1abe610cf2bf87e57dcc1181fcf5ac0934e843d8344ab9eed6e86c799f62585e85604051610d26919061143c565b60405180910390a350505050565b610d3c611263565b6001835111610d80576040517f08c379a0000000000000000000000000000000000000000000000000000000008152600401610d7790611ece565b60405180910390fd5b818111610dc2576040517f08c379a0000000000000000000000000000000000000000000000000000000008152600401610db990611f60565b60405180910390fd5b6000600260006001548152602001908152602001600020905084816000019081610dec919061212c565b5060018160050160006101000a81548160ff02191690831515021790555060008160050160016101000a81548160ff02191690831515021790555082816006018190555081816007018190555060005b8451811015610ea95781600101858281518110610e5c57610e5b611c2c565b5b6020026020010151908060018154018082558091505060019003906000526020600020016000909190919091509081610e95919061212c565b508080610ea190611c8a565b915050610e3c565b506001547ffaf65a16b84baedeea7edb870d225726a8e3020e445d891a7db52179537038028686604051610ede9291906121fe565b60405180910390a260016000815480929190610ef990611c8a565b91905055505050505050565b6060826002600082815260200190815260200160002060050160009054906101000a900460ff16610f6b576040517f08c379a0000000000000000000000000000000000000000000000000000000008152600401610f6290611bac565b60405180910390fd5b600260008581526020019081526020016000206001018381548110610f9357610f92611c2c565b5b906000526020600020018054610fa890611bfb565b80601f0160208091040260200160405190810160405280929190818152602001828054610fd490611bfb565b80156110215780601f10610ff657610100808354040283529160200191611021565b820191906000526020600020905b81548152906001019060200180831161100457829003601f168201915b505050505091505092915050565b6000816002600082815260200190815260200160002060050160009054906101000a900460ff16611095576040517f08c379a000000000000000000000000000000000000000000000000000000000815260040161108c90611bac565b60405180910390fd5b6002600084815260200190815260200160002060050160019054906101000a900460ff16915050919050565b6000816002600082815260200190815260200160002060050160009054906101000a900460ff16611127576040517f08c379a000000000000000000000000000000000000000000000000000000000815260040161111e90611bac565b60405180910390fd5b6002600084815260200190815260200160002060070154915050919050565b6000826002600082815260200190815260200160002060050160009054906101000a900460ff166111ac576040517f08c379a00000000000000000000000000000000000000000000000000000000081526004016111a390611bac565b60405180910390fd5b6002600085815260200190815260200160002060020160008481526020019081526020016000205491505092915050565b6111e5611263565b600073ffffffffffffffffffffffffffffffffffffffff168173ffffffffffffffffffffffffffffffffffffffff16036112575760006040517f1e4fbdf700000000000000000000000000000000000000000000000000000000815260040161124e919061181e565b60405180910390fd5b611260816112ea565b50565b61126b6113ae565b73ffffffffffffffffffffffffffffffffffffffff16611289610939565b73ffffffffffffffffffffffffffffffffffffffff16146112e8576112ac6113ae565b6040517f118cdaa70000000000000000000000000000000000000000000000000000000081526004016112df919061181e565b60405180910390fd5b565b60008060009054906101000a900473ffffffffffffffffffffffffffffffffffffffff169050816000806101000a81548173ffffffffffffffffffffffffffffffffffffffff021916908373ffffffffffffffffffffffffffffffffffffffff1602179055508173ffffffffffffffffffffffffffffffffffffffff168173ffffffffffffffffffffffffffffffffffffffff167f8be0079c531659141344cd1fd0a4f28419497f9722a3daafe3b4186f6b6457e060405160405180910390a35050565b600033905090565b6000604051905090565b600080fd5b600080fd5b6000819050919050565b6113dd816113ca565b81146113e857600080fd5b50565b6000813590506113fa816113d4565b92915050565b600060208284031215611416576114156113c0565b5b6000611424848285016113eb565b91505092915050565b611436816113ca565b82525050565b6000602082019050611451600083018461142d565b92915050565b600073ffffffffffffffffffffffffffffffffffffffff82169050919050565b600061148282611457565b9050919050565b61149281611477565b811461149d57600080fd5b50565b6000813590506114af81611489565b92915050565b600080604083850312156114cc576114cb6113c0565b5b60006114da858286016113eb565b92505060206114eb858286016114a0565b9150509250929050565b60008115159050919050565b61150a816114f5565b82525050565b60006020820190506115256000830184611501565b92915050565b600081519050919050565b600082825260208201905092915050565b60005b8381101561156557808201518184015260208101905061154a565b60008484015250505050565b6000601f19601f8301169050919050565b600061158d8261152b565b6115978185611536565b93506115a7818560208601611547565b6115b081611571565b840191505092915050565b600060208201905081810360008301526115d58184611582565b905092915050565b600081519050919050565b600082825260208201905092915050565b6000819050602082019050919050565b600082825260208201905092915050565b60006116258261152b565b61162f8185611609565b935061163f818560208601611547565b61164881611571565b840191505092915050565b600061165f838361161a565b905092915050565b6000602082019050919050565b600061167f826115dd565b61168981856115e8565b93508360208202850161169b856115f9565b8060005b858110156116d757848403895281516116b88582611653565b94506116c383611667565b925060208a0199505060018101905061169f565b50829750879550505050505092915050565b600081519050919050565b600082825260208201905092915050565b6000819050602082019050919050565b61171e816113ca565b82525050565b60006117308383611715565b60208301905092915050565b6000602082019050919050565b6000611754826116e9565b61175e81856116f4565b935061176983611705565b8060005b8381101561179a5781516117818882611724565b975061178c8361173c565b92505060018101905061176d565b5085935050505092915050565b600060a08201905081810360008301526117c18188611582565b905081810360208301526117d58187611674565b905081810360408301526117e98186611749565b90506117f8606083018561142d565b6118056080830184611501565b9695505050505050565b61181881611477565b82525050565b6000602082019050611833600083018461180f565b92915050565b600080604083850312156118505761184f6113c0565b5b600061185e858286016113eb565b925050602061186f858286016113eb565b9150509250929050565b600080fd5b600080fd5b7f4e487b7100000000000000000000000000000000000000000000000000000000600052604160045260246000fd5b6118bb82611571565b810181811067ffffffffffffffff821117156118da576118d9611883565b5b80604052505050565b60006118ed6113b6565b90506118f982826118b2565b919050565b600067ffffffffffffffff82111561191957611918611883565b5b61192282611571565b9050602081019050919050565b82818337600083830152505050565b600061195161194c846118fe565b6118e3565b90508281526020810184848401111561196d5761196c61187e565b5b61197884828561192f565b509392505050565b600082601f83011261199557611994611879565b5b81356119a584826020860161193e565b91505092915050565b600067ffffffffffffffff8211156119c9576119c8611883565b5b602082029050602081019050919050565b600080fd5b60006119f26119ed846119ae565b6118e3565b90508083825260208201905060208402830185811115611a1557611a146119da565b5b835b81811015611a5c57803567ffffffffffffffff811115611a3a57611a39611879565b5b808601611a478982611980565b85526020850194505050602081019050611a17565b5050509392505050565b600082601f830112611a7b57611a7a611879565b5b8135611a8b8482602086016119df565b91505092915050565b60008060008060808587031215611aae57611aad6113c0565b5b600085013567ffffffffffffffff811115611acc57611acb6113c5565b5b611ad887828801611980565b945050602085013567ffffffffffffffff811115611af957611af86113c5565b5b611b0587828801611a66565b9350506040611b16878288016113eb565b9250506060611b27878288016113eb565b91505092959194509250565b600060208284031215611b4957611b486113c0565b5b6000611b57848285016114a0565b91505092915050565b7f4576656e7420646f6573206e6f74206578697374000000000000000000000000600082015250565b6000611b96601483611536565b9150611ba182611b60565b602082019050919050565b60006020820190508181036000830152611bc581611b89565b9050919050565b7f4e487b7100000000000000000000000000000000000000000000000000000000600052602260045260246000fd5b60006002820490506001821680611c1357607f821691505b602082108103611c2657611c25611bcc565b5b50919050565b7f4e487b7100000000000000000000000000000000000000000000000000000000600052603260045260246000fd5b7f4e487b7100000000000000000000000000000000000000000000000000000000600052601160045260246000fd5b6000611c95826113ca565b91507fffffffffffffffffffffffffffffffffffffffffffffffffffffffffffffffff8203611cc757611cc6611c5b565b5b600182019050919050565b7f566f74696e6720656e6465640000000000000000000000000000000000000000600082015250565b6000611d08600c83611536565b9150611d1382611cd2565b602082019050919050565b60006020820190508181036000830152611d3781611cfb565b9050919050565b7f566f74696e67206e6f7420737461727465640000000000000000000000000000600082015250565b6000611d74601283611536565b9150611d7f82611d3e565b602082019050919050565b60006020820190508181036000830152611da381611d67565b9050919050565b7f416c726561647920766f74656400000000000000000000000000000000000000600082015250565b6000611de0600d83611536565b9150611deb82611daa565b602082019050919050565b60006020820190508181036000830152611e0f81611dd3565b9050919050565b7f496e76616c696420636f6d70616e790000000000000000000000000000000000600082015250565b6000611e4c600f83611536565b9150611e5782611e16565b602082019050919050565b60006020820190508181036000830152611e7b81611e3f565b9050919050565b7f4174206c65617374203220636f6d70616e696573207265717569726564000000600082015250565b6000611eb8601d83611536565b9150611ec382611e82565b602082019050919050565b60006020820190508181036000830152611ee781611eab565b9050919050565b7f456e642074696d65206d7573742062652061667465722073746172742074696d60008201527f6500000000000000000000000000000000000000000000000000000000000000602082015250565b6000611f4a602183611536565b9150611f5582611eee565b604082019050919050565b60006020820190508181036000830152611f7981611f3d565b9050919050565b60008190508160005260206000209050919050565b60006020601f8301049050919050565b600082821b905092915050565b600060088302611fe27fffffffffffffffffffffffffffffffffffffffffffffffffffffffffffffffff82611fa5565b611fec8683611fa5565b95508019841693508086168417925050509392505050565b6000819050919050565b600061202961202461201f846113ca565b612004565b6113ca565b9050919050565b6000819050919050565b6120438361200e565b61205761204f82612030565b848454611fb2565b825550505050565b600090565b61206c61205f565b61207781848461203a565b505050565b5b8181101561209b57612090600082612064565b60018101905061207d565b5050565b601f8211156120e0576120b181611f80565b6120ba84611f95565b810160208510156120c9578190505b6120dd6120d585611f95565b83018261207c565b50505b505050565b600082821c905092915050565b6000612103600019846008026120e5565b1980831691505092915050565b600061211c83836120f2565b9150826002028217905092915050565b6121358261152b565b67ffffffffffffffff81111561214e5761214d611883565b5b6121588254611bfb565b61216382828561209f565b600060209050601f8311600181146121965760008415612184578287015190505b61218e8582612110565b8655506121f6565b601f1984166121a486611f80565b60005b828110156121cc578489015182556001820191506020850194506020810190506121a7565b868310156121e957848901516121e5601f8916826120f2565b8355505b6001600288020188555050505b505050505050565b600060408201905081810360008301526122188185611582565b9050818103602083015261222c8184611674565b9050939250505056fea2646970667358221220d2ded00a0f07fbd31b51c97f888a878931a34be50cb52714e036b5f6f94822b564736f6c63430008140033",
  "linkReferences": {},
  "deployedLinkReferences": {}
}